S01900006F70656E626C745F73746D3332683734332E73726563F9
S3150800000000000824FD090008110900081309000862
S31508000010150900081709000819090008000000005A
S315080000200000000000000000000000001B09000896
S315080000301D090008000000001F0900082109000822
S315080000404D0A00084D0A00084D0A00084D0A000826
S315080000504D0A00084D0A00084D0A00084D0A000816
S315080000604D0A00084D0A00084D0A00084D0A000806
S315080000704D0A00084D0A00084D0A00084D0A0008F6
S315080000804D0A00084D0A00084D0A00084D0A0008E6
S315080000904D0A00084D0A00084D0A00084D0A0008D6
S315080000A04D0A00084D0A00084D0A00084D0A0008C6
S315080000B04D0A00084D0A00084D0A00084D0A0008B6
S315080000C04D0A00084D0A00084D0A00084D0A0008A6
S315080000D04D0A00084D0A00084D0A00084D0A000896
S315080000E04D0A00084D0A0008000000004D0A0008E5
S315080000F04D0A00084D0A00084D0A00084D0A000876
S315080001004D0A00084D0A00084D0A00084D0A000865
S315080001104D0A00084D0A00084D0A00084D0A000855
S315080001204D0A00084D0A00084D0A00084D0A000845
S315080001304D0A00084D0A00084D0A00084D0A000835
S3150800014000000000000000000000000000000000A1
S315080001504D0A00084D0A00084D0A00084D0A000815
S315080001604D0A00084D0A00084D0A00084D0A000805
S315080001704D0A00084D0A00084D0A00080000000054
S315080001804D0A00084D0A00084D0A00084D0A0008E5
S315080001904D0A00084D0A00084D0A00084D0A0008D5
S315080001A04D0A00084D0A00084D0A00084D0A0008C5
S315080001B04D0A00084D0A00084D0A00084D0A0008B5
S315080001C04D0A00084D0A00084D0A00084D0A0008A5
S315080001D04D0A00084D0A00084D0A00084D0A000895
S315080001E04D0A00084D0A00084D0A00084D0A000885
S315080001F04D0A00084D0A00084D0A00084D0A000875
S315080002004D0A00084D0A00084D0A00084D0A000864
S315080002104D0A00084D0A00084D0A00084D0A000854
S315080002204D0A00084D0A00084D0A000800000000A3
S315080002304D0A00084D0A0008000000004D0A000893
S315080002404D0A00084D0A00084D0A00084D0A000824
S315080002504D0A00084D0A00084D0A00084D0A000814
S315080002604D0A00084D0A00084D0A00084D0A000804
S315080002704D0A00084D0A00084D0A00080000000053
S315080002804D0A00084D0A00084D0A00080000000043
S30D08000290000000004D0A0008F9
S3150800029810B5054C237833B9044B13B10448AFF3AA
S315080002A800800123237010BD90010024000000007F
S315080002B86C66000808B5034B1BB103490348AFF33E
S315080002C8008008BD00000000940100246C66000840
S315080002D808B505F029FC08BD08B505F033FC08BDC6
S315080002E808B5642000F008F808BD08B500F00AF853
S315080002F808BD704770477047014B1880704700BFA4
S31508000308B401002408B505F0BDF90F4B1B689842DF
S3150800031810D30E4B1B7873B90C4B01221A700C4B71
S315080003284FF480429A6105F0ADF90A4B1B880344DD
S31508000338054A136008BD054B00221A70044B4FF096
S3150800034880429A61EFE700BFB0010024AC0100249F
S3150800035800040258B401002400B55FFA80FC094974
S315080003685CF80130020EC0F3042E02FA0EF223EAF4
S315080003780203C0F3074000FA0EF003434CF80130B5
S315080003885DF804FB4C44025830B58DB00024069439
S315080003980794089409940A940B942A4BD3F8E020F6
S315080003A842F00402C3F8E020D3F8E02002F0040281
S315080003B80592059AD3F8E02042F08002C3F8E020B7
S315080003C8D3F8E02002F080020492049AD3F8E020D9
S315080003D842F00802C3F8E020D3F8E02002F0080249
S315080003E80392039AD3F8E02042F00102C3F8E0200A
S315080003F8D3F8E02002F001020292029AD3F8E0202C
S3150800040842F00202C3F8E020D3F8E03003F0020312
S315080004180193019B0C4D4FF40003AB614FF4005355
S31508000428069306A9094802F055FD80230693012379
S315080004380793089409940A9406A9284602F04AFDDF
S315080004480DB030BD0044025800040258000802588E
S3150800045810B590B0202200210DEB020006F0C7F86F
S31508000468002402940394049405940694079439483E
S31508000478FFF772FF384BD3F8E82042F48022C3F816
S31508000488E820D3F8E82002F480220192019AD3F8EA
S31508000498E02042F00802C3F8E020D3F8E03003F081
S315080004A808030093009B4FF44073029302230393B7
S315080004B80494059406940723079302A9274802F08B
S315080004C809FD08944FF4E13309930A940B940C94A4
S315080004D80C230D930E940F9408A9214803F0BCF831
S315080004E84FF0402202F6080353E8003F23F0604322
S315080004F802F6080242E800310029F1D14FF04022FD
S3150800050802F6080353E8003F23F0606302F6080280
S3150800051842E800310029F1D1114B1A6822F000523D
S315080005281A605A6822F490425A609A6822F02A0297
S315080005389A601A6842F001021A60094BDB6913F4DB
S31508000548001FFAD0064BDB6913F4800FF5D010B0FC
S3150800055810BD00BF0800000700440258000C0258E6
S315080005680048004008B55B4A136823F00F0343F0B8
S3150800057804031360574B1B6803F00F03042BF9D1C8
S31508000588554AD36823F0070343F00203D3609369F7
S3150800059843F44043936100E032B94F4B9A6912F429
S315080005A80052F9D00122F7E74C4B196841F480212B
S315080005B81960196841F48031196001E0012B06D0E9
S315080005C8464B1B6813F40033F8D01346F6E7434A3C
S315080005D8916A21F0030141F002019162D16A41F45E
S315080005E88031D162D16A41F40031D162D16A21F0F1
S315080005F80C0141F00401D162D16A21F00201D162ED
S31508000608916A21F47C7141F040019162116B34487A
S31508000618084040F2DF1101431163116B21F47E4152
S3150800062841F400711163116B21F4FE0141F498112C
S315080006381163116B21F0FE4141F080711163116855
S3150800064841F08071116001E0012A06D0234A126838
S3150800065812F00072F8D01A46F6E7204A936923F092
S315080006680F0343F008039361136923F0070343F064
S3150800067803031361194B1B6903F03803182BF9D1C7
S31508000688164B9A6922F470629A619A6922F00F02E7
S3150800069842F008029A61DA6922F0700242F04002D2
S315080006A8DA61DA6922F4E06242F48062DA619A6908
S315080006B822F0700242F040029A611A6A22F0700229
S315080006C842F040021A62074803F028FE002000F0AC
S315080006D8FDF908BD00200052004802580044025897
S315080006E800FEFFFF00389C1C08B500F017FAFFF754
S315080006F839FFFFF749FEFFF7ABFEFFF7E9FDFFF7FE
S31508000708EBFDFCE782B0074BD3F8F42042F002026F
S31508000718C3F8F420D3F8F43003F002030193019BDD
S3150800072802B070470044025800B589B00023039305
S3150800073804930593069307930268174B9A4202D0C7
S3150800074809B05DF804FB154B1A6D22F040521A657C
S31508000758D3F8EC2042F48072C3F8EC20D3F8EC20E6
S3150800076802F480720192019AD3F8E02042F002025C
S31508000778C3F8E020D3F8E03003F002030293029BA3
S315080007884FF440730393022304930923079303A999
S31508000798034801F0EFF8D3E700A0004000440258E8
S315080007A80004025810B588B00023039304930593F0
S315080007B80693079302681B4B9A4201D008B010BDEE
S315080007C8194C636D23F4401343F480136365174A81
S315080007D8D36843F08073D360D4F8E03043F001035C
S315080007E8C4F8E030D4F8E03003F001030193019B24
S315080007F84FF4C053039302230493002306930A2352
S31508000808079303A90A4801F0B5F8D4F8D83043F095
S315080008180063C4F8D830D4F8D83003F000630293DC
S31508000828029BCBE7000008400044025800480258DB
S315080008380000025808B50268084B9A4200D008BD5D
S31508000848074AD2F8D83023F00063C2F8D8304FF4F4
S31508000858C051044801F09EF9F1E700BF00000840BE
S31508000868004402580000025810B502F0D9FB214C82
S315080008784FF40003A361204802F040FA1F4802F02B
S315080008883DFA204602F03AFA1D4802F037FA1D4B9F
S31508000898D3F8D82022F00062C3F8D820D3F8EC2081
S315080008A822F48072C3F8EC20D3F8E82022F48022D8
S315080008B8C3F8E820D3F8E02022F00802C3F8E020BD
S315080008C8D3F8E02022F00402C3F8E020D3F8E020A9
S315080008D822F00202C3F8E020D3F8E02022F0010251
S315080008E8C3F8E020D3F8F42022F00202C3F8F42073
S315080008F810BD00BF00040258000C02580008025830
S3150800090800000258004402587047FEE7FEE7FEE773
S31508000918FEE770477047704708B500F02DF908BD1F
S31508000928294AD2F8883043F47003C2F88830274B2E
S315080009381B6803F00F03062B06D8244A136823F00E
S315080009480F0343F007031360214B1A6842F00102AC
S315080009581A6000221A6119681E4A0A401A601B4B57
S315080009681B6813F0080F06D0184A136823F00F03FC
S3150800097843F007031360164B00229A61DA611A627C
S31508000988154999621549D962154919635A639963CC
S31508000998DA6319645A64196821F4802119601A6699
S315080009A8104B1A68104B1340B3F1005F03D20F4B74
S315080009B80122C3F808210E4B43F2D2021A60024BF1
S315080009C84FF000629A60704700ED00E00020005280
S315080009D8004402587FEDF6EA000202020000FF0111
S315080009E8800201010010005C0000FFFF0080005132
S315080009F800400052DFF834D0FFF792FF002103E0E9
S31508000A080B4B5B58435004310A480B4B42189A4221
S31508000A18F6D30A4A02E0002342F8043B084B9A42F6
S31508000A28F9D305F0EDFDFFF75FFE704700000824CF
S31508000A38B8690008000000249001002490010024E9
S31508000A4870170024FEE7000010B5194B194ADA6733
S31508000A580024DC67184AC3F88020C3F8804040F2AF
S31508000A687122C3F88420C3F88440144AC3F888203E
S31508000A78C3F888401822C3F88C20C3F88C40104A5B
S31508000A88C3F89020C3F890404FF49B72C3F894209B
S31508000A98C3F894400B4AC3F89820C3F898400A4A02
S31508000AA8C3F89C20C3F89C40FFF7DEFE204610BD1D
S31508000AB8004402583150010023C0000AFF072803E2
S31508000AC8FFC3FFE83330D731AADE2000104B1B7866
S31508000AD80BB90120704710B504464FF47A70B0FB7D
S31508000AE8F3F30C4A1068B0FBF3F000F0B9F868B9EC
S31508000AF80F2C01D901200AE0002221464FF0FF30C9
S31508000B0800F09EF8044B1C60002000E0012010BD90
S31508000B1808000024040000240C00002410B5032053
S31508000B2800F07CF801F0CEFF0F498B69C3F3032365
S31508000B380E4AD35C03F01F03D8408B6903F00F03F2
S31508000B48D35C03F01F0320FA03F3094A1360094B21
S31508000B5818600020FFF7BAFF10B10124204610BD1F
S31508000B680446FFF7CFFDF9E700440258D0660008A7
S31508000B780000002404000024034B1B78034A11686C
S31508000B880B441360704700BF080000249C06002425
S31508000B9838B5044604F07EFD0546B4F1FF3F02D099
S31508000BA8044B1B781C4404F075FD401BA042FAD37D
S31508000BB838BD00BF08000024002804DB0901C9B2B3
S31508000BC8044B1954704700F00F000901C9B2024BCB
S31508000BD81954704700E400E014ED00E000B500F091
S31508000BE80700C0F1070CBCF1040F28BF4FF0040C2E
S31508000BF8031D062B0FD9C31E4FF0FF3E0EFA0CF045
S31508000C0821EA000199400EFA03FE22EA0E0241EA99
S31508000C1802005DF804FB0023EEE700000649CB68EE
S31508000C2823F4E0631B041B0C000200F4E060034392
S31508000C38024A1A43CA60704700ED00E00000FA0548
S31508000C4810B50446054BD868C0F30220FFF7C6FF5F
S31508000C5801462046FFF7B0FF10BD00BF00ED00E0D3
S31508000C680138B0F1807F0BD24FF0E0235861054A6E
S31508000C78F02182F823100020986107221A6170472C
S31508000C880120704700ED00E030B4416B0468D4F8E1
S31508000C9884306F4A134043EA8103C4F884300468F1
S31508000CA8D4F8843023F47F03856B43EA0543C4F8F4
S31508000CB88430836B0B440468D4F88810114041EAE1
S31508000CC88301C4F888100468D4F8881021F4FE0152
S31508000CD8C56B41EA0541C4F88810C16B03EB4103AB
S31508000CE80468D4F8A010114041EA8301C4F8A0109A
S31508000CF80468D4F8A01021F4FE01056C41EA054100
S31508000D08C4F8A010016C446C04FB01330468D4F8D9
S31508000D18B010114041EA8301C4F8B0100468D4F849
S31508000D28B01021F4FE01856C41EA0541C4F8B010FB
S31508000D38816CC46C04FB01330468D4F8AC10114008
S31508000D4841EA8301C4F8AC10016D446D04FB013314
S31508000D580468D4F8F010114041EA8301C4F8F01089
S31508000D680468D4F8F01021F47C11856D41EA054130
S31508000D78C4F8F010816D03EB41030468D4F8C01079
S31508000D880A4042EA8303C4F8C0300268D2F8C03081
S31508000D9823F47C13C16D43EA0143C2F8C0300268E4
S31508000DA8D2F8C03023F07C53016E43EA0163C2F8D7
S31508000DB8C030436B274A1A449200C266836B02EB1B
S31508000DC883030367C16B03EBC1034367016C446C78
S31508000DD804FB01F103EB81038367816CC46C04FB94
S31508000DE801F103EB8103C367016D446D04FB01F14F
S31508000DF803EB8103C0F88030816D03EBC103C0F8AB
S31508000E088430816EC46D01FB04FC03EB8C03C0F8C7
S31508000E188830046E04FB01F103EB8103C0F89030B7
S31508000E280D498B420DD9D0F89C3043F02003C0F801
S31508000E389C30032380F89830012007E0002342F805
S31508000E48043BD0F890309342F8D8002030BC70475D
S31508000E580300FFFF002B0010FCD3004070B54C6858
S31508000E68FCB90D698C6825430C6845EA84450E6A01
S31508000E78CC6944EA06648E6934434E693443CE68BD
S31508000E8844EA0644D0F88460806E00FB03F306EB58
S31508000E98830E46F82350CEF804400EF1080E0020BB
S31508000EA819E00C698D6825430C68254345F080458B
S31508000EB8DDE702EB000C9CF803409CF802301B04A3
S31508000EC843EA04639CF8014043EA0423145C234379
S31508000ED84EF8043B0430CB68024CE35C8342E8D8FE
S31508000EE870BD00BFE066000830B595B004464C22D0
S31508000EF8A04901A805F0A8FB002C00F03881236852
S31508000F089D4A934220D094F898300BB32268936987
S31508000F1823F01003936104F0BDFB054623689A691C
S31508000F2812F0080F1AD004F0B5FB431B0A2BF5D9A3
S31508000F38D4F89C3043F00103C4F89C30032384F8A2
S31508000F489830012015B030BD03F580736360DAE781
S31508000F5884F899302046FFF7E7FBD7E79A6942F005
S31508000F6801029A6104F096FB054623689A6912F00D
S31508000F78010F0FD104F08EFB401B0A28F5D9D4F8C7
S31508000F889C3043F00103C4F89C30032384F8983056
S31508000F980120D7E79A6942F002029A61237C012B5D
S31508000FA840D02268936943F040039361637C012B20
S31508000FB83ED02268936923F480439361A37C012B6E
S31508000FC83CD02268936943F48053936122689369F5
S31508000FD823F44073A1680B4393612268936923F04D
S31508000FE8A40393612268136923F010031361E36865
S31508000FF8012B29D0002B2CD0022B00F09B802268CD
S31508001008936943F0800393612268136943F01003D8
S315080010181361E368032B1CD12268936943F0200304
S31508001028936116E02268936923F040039361BDE74C
S315080010382268936943F480439361BFE722689369FA
S3150800104823F480539361C1E72268936943F0040344
S315080010589361A3695A1EE369013B1B0243EA42638B
S31508001068226A013A13436269013A216843EA02434C
S31508001078CB61A368B3F5407F62D0236E33B122688B
S31508001088D2F8C030616E0B43C2F8C030E36D226EE9
S31508001098D3420DD02168D1F8C83023F00703A26ED1
S315080010A814A800EB820252F84C2C1343C1F8C83036
S315080010B8236C6BB12168D1F8BC3023F00703626C46
S315080010C814A800EB820252F84C2C1343C1F8BC3022
S315080010D8A36C73B12168D1F8BC3023F07003E26CB5
S315080010E814A800EB820252F84C2C43EA0213C1F802
S315080010F8BC30236D73B12168D1F8BC3023F4E063A2
S31508001108626D14A800EB820252F84C2C43EA0223BB
S31508001118C1F8BC302268184B9A4222D00023C4F87A
S315080011289430C4F89C30012384F898302046FFF799
S31508001138ABFD07E72268936943F02003936188E7C4
S31508001148A36A013BE26A013A43EA0223226B013A9F
S3150800115843EA0213626A013A216843EA0243CB600A
S315080011688BE76268936823F003039360D6E7012048
S31508001178E8E600BF8466000800A0004090F89830AA
S31508001188013BDBB2012B07D9D0F89C3043F00203A8
S31508001198C0F89C3001207047CB680A68D2B9072B7B
S315080011A80ED08A68DB0643EA82730A6943EA024371
S315080011B84A691343C26E496842F8213000207047CD
S315080011C80A69CB691B0243EA02438A69134343F057
S315080011D86053EFE710B40A6942EA4372072B0FD047
S315080011E84B698C6843EA8473006F496800EBC10C45
S315080011F840F83120CCF8043000205DF8044B7047DD
S315080012088B69F1E790F898C05FFA8CFCBCF1010F7E
S3150800121807D0D0F89C3043F00403C0F89C3001206E
S315080012287047920042EA011242EA43030168009AAB
S315080012381A43C1F880200020704790F89830DBB22E
S31508001248012B07D0D0F89C3043F00403C0F89C3033
S3150800125801207047022380F898300268936923F0C2
S31508001268010393610023C0F89C301846704790F82C
S3150800127898C00CF1FF3C5FFA8CFCBCF1010F2DD825
S3150800128870B593FAA3F4A4B1B4FA84F40668D6F848
S31508001298C050C5F3054C64450DD2D6F8CC401C425F
S315080012A811D0D0F89C3043F04003C0F89C30012098
S315080012B808E02024EAE7D0F89C3043F02003C0F879
S315080012C89C30012070BD93FAA3F32BB1B3FA83F3CC
S315080012D8FFF7C4FD0020F5E72023F9E7D0F89C308E
S315080012E843F00203C0F89C300120704790F8983004
S315080012F8DBB2022B07D0D0F89C3043F00803C0F8BD
S315080013089C30012070470368C3F8D0100020704746
S3150800131890F898C05FFA8CFCBCF1020F40F0DF80A9
S3150800132870B540290CD041293DD0046D8C426DD842
S31508001338D0F89C3043F02003C0F89C300120C1E067
S315080013480468D4F8A05015F4FE0F0CD0D4F8A450AD
S3150800135815F07F0F0FD1D0F89C3043F48073C0F88E
S315080013689C300120AEE0D0F89C3043F02003C0F84A
S315080013789C300120A6E0D4F8A450C5F3006615F001
S31508001388807F04D0D4F8A060F60F00D10026D4F8E0
S31508001398A440C4F305242644456F446C06FB04F4AC
S315080013A805EB840E39E00468D4F8B05015F4FE0F3E
S315080013B80CD0D4F8B45015F07F0F0FD1D0F89C3064
S315080013C843F48073C0F89C3001207BE0D0F89C3049
S315080013D843F02003C0F89C30012073E0D4F8B450D9
S315080013E8C5F3006615F0807F04D0D4F8B060F60F10
S315080013F800D10026D4F8B440C4F305242644856FE2
S31508001408C46C06FB04F405EB840E06E0C56F446D50
S3150800141801FB04F405EB840E0026DEF8004004F010
S315080014288044546064BBDEF80040C4F38A44146000
S31508001438DEF8004004F000549460DEF8004004F03A
S3150800144800441461BEF80440D461BEF8064004F0AE
S315080014580F04D460DEF8044004F480145461DEF8FE
S31508001468044004F4001494619EF8074004F07F04CD
S315080014781462DEF80440E40F54624FF0000C0CE0E6
S31508001488DEF8004024F060441460D1E70EEB0C0443
S31508001498247A03F80C400CF1010CD468144D2C5D21
S315080014A86445F3D8402909D041290CD01F290ED8FC
S315080014B8026801238B40C2F8983002E00368C3F833
S315080014C8A860002070BD0368C3F8B860F9E701F0A2
S315080014D81F01026801238B40C2F89C30F1E7D0F857
S315080014E89C3043F00803C0F89C300120704700BFC1
S315080014F8E06600080368D3F8CC00084000D001204D
S315080015087047402905D00368D3F8B40000F07F0077
S3150800151870470368D3F8A40000F07F0070470000FE
S31508001528144BDB6813F0010F09D0124B124A5A60A4
S3150800153802F188325A60DB6813F0010F14D10D4B9B
S31508001548D3F80C3113F0010F10D00A4B0A4AC3F826
S31508001558042102F18832C3F80421D3F80C3113F0B8
S31508001568010F05D1002070470120704700207047F9
S315080015780120704700200052230167450D4BDA68A1
S3150800158842F00102DA60DB6813F0010F0DD0094B4F
S31508001598D3F80C2142F00102C3F80C21D3F80C3118
S315080015A813F0010F03D0002070470120704701206F
S315080015B8704700BF00200052F8B505460E4604F0ED
S315080015C869F80746022E09D0042414E004F062F8E4
S315080015D8C01BA8425DD875B903204AE0304C0AE01A
S315080015E8304B1B6934EA03030CBF012300237BB184
S315080015F8B5F1FF3FEAD1002CF2DA2A4BD3F81031BD
S3150800160824EA030333F000430CBF01230023EEE763
S31508001618012E1CD0234BD3F8103123F0684323F44A
S3150800162880135B0C5B0443F0004333F0004117D189
S31508001638012E23D01B4BD3F8103113F4803F2CD03E
S31508001648184B4FF48032C3F81421002011E0154BCB
S315080016581B6923F0684323F480135B0C5B04E4E7F7
S31508001668114882691A438261002B03DB0D4A5361CC
S315080016780120F8BD0B4BC3F81411F9E7094B1B6990
S3150800168813F4803F07D0074B4FF480325A61002085
S31508001698EFE70320EDE70020EBE70020E9E700BFC6
S315080016A80400008000200052A00600242D4B1B7D54
S315080016B8012B53D070B50D4614462A4B01221A75CC
S315080016C801F17843B3F5801F3AD3A1F10161B1F569
S315080016D8801F45D20226234B00229A6131464CF2D6
S315080016E85030FFF769FF38BB012E2BD01E4AD2F8B7
S315080016F80C3143F00203C2F80C31BFF36F8FBFF306
S315080017084F8F082354F8042B45F8042B013B13F094
S31508001718FF03F7D1BFF36F8FBFF34F8F31464CF2F4
S315080017285030FFF749FF012E12D00F4AD2F80C3174
S3150800173823F00203C2F80C310A4B00221A7570BD51
S315080017480126C8E7084AD36843F00203D360D4E7FA
S31508001758054AD36823F00203D360EDE702207047F1
S315080017680120ECE7A00600240020005201F003033C
S31508001778032B24D011F0010F0BD01D4BDA6822F089
S315080017883002DA60DA680243DA60DA6842F0880218
S31508001798DA6011F0020F11D0154BD3F80C2122F09C
S315080017A83002C3F80C21D3F80C210243C3F80C21E4
S315080017B8D3F80C2142F08802C3F80C2170470C4B69
S315080017C8DA6822F03002DA60D3F80C2122F0300207
S315080017D8C3F80C21DA680243DA60D3F80C2102430D
S315080017E8C3F80C219A6942F010029A61704700BF43
S315080017F80020005210B411F0010F0CD0114CE36808
S3150800180823F4E663E360E36842EA002C43EA0C0340
S3150800181843F08403E36011F0020F0FD00949D1F8A9
S315080018280C3123F4E663C1F80C31D1F80C3142EADD
S315080018380022134343F08403C1F80C315DF8044BC6
S31508001848704700BF00200052F8B5474B1B7D012B97
S3150800185800F0888004460F46434B01221A75002279
S315080018689A61436813F0010F0DD10025636813F0D8
S31508001878020F12D1CDB92368012B1BD04FF0FF33C5
S315080018883B60A6684CE001214CF25030FFF794FE05
S3150800189805460028EAD00125E8E702214CF250302F
S315080018A8FFF78AFE0028E5D001252F4B00221A7576
S315080018B82846F8BD61682069FFF758FF636813F082
S315080018C8010F12D1636813F0020FEED002214CF211
S315080018D85030FFF771FE00B10125244AD2F80C31C1
S315080018E823F00803C2F80C31DFE701214CF2503027
S315080018F8FFF762FE00B101251C4AD36823F00803E6
S31508001908D360DFE701214CF25030FFF755FE054654
S31508001918164AD168164B0B40D3600FE005BB013653
S31508001928E368A2681344B342BFD92269616830469E
S31508001938FFF760FF636813F0010FE3D1636813F0DC
S31508001948020FEBD002214CF25030FFF735FE054660
S31508001958064AD2F80C11064B0B40C2F80C31DDE7E3
S315080019683E60A2E70225A3E7A0060024002000524D
S31508001978FBF8FFFFF0B583B000236BE085685E00CF
S315080019880324B44025EA0405CC68B4402C43846093
S31508001998456825EA0C054C68C4F300149C402C439A
S315080019A8446069E0DD08083550F8254003F0070C5F
S315080019B84FEA8C0C4FF00F0E0EFA0CFE24EA0E0EA8
S315080019C80C6904FA0CF444EA0E0440F825406BE066
S315080019D8092400E0002404FA0EF42C430CF1020C46
S315080019E8694D45F82C404FF0B0442568D44325EA9C
S315080019F802064F6817F4801F01D042EA05064FF021
S31508001A08B0452E606D6804EA05064F6817F4001F8E
S31508001A1801D042EA05064FF0B0456E60D5F8845005
S31508001A2804EA05064F6817F4003F01D042EA05069E
S31508001A384FF0B045C5F88460D5F880502C404E68FC
S31508001A4816F4803F01D042EA05044FF0B042C2F8C6
S31508001A58804001330A6832FA03F400F092804FF0A6
S31508001A68010C0CFA03FC1CEA0202F2D04C6804F0DA
S31508001A780304013C012C81D94C6804F00304032CA7
S31508001A880CD0C4685D004FF0030C0CFA05FC24EA78
S31508001A980C0C8C68AC4044EA0C04C4604C6804F02E
S31508001AA80304022C3FF47EAF04684FEA430E4FF056
S31508001AB8030C0CFA0EFC24EA0C0C4C6804F003041C
S31508001AC804FA0EF444EA0C0404604C6814F4403F23
S31508001AD8BFD02E4CD4F8F45045F00205C4F8F4509B
S31508001AE8D4F8F44004F002040194019C4FEA930CDC
S31508001AF80CF10205244C54F8255003F0030E4FEA5E
S31508001B088E0E0F2404FA0EF425EA0405204CA0428A
S31508001B183FF460AF04F58064A04222D004F58064DF
S31508001B28A04220D004F58064A0421ED004F5806443
S31508001B38A0421CD004F58064A0421AD004F580643B
S31508001B48A04218D004F58064A04216D004F5806433
S31508001B58A04214D004F58064A0423FF439AF0A24A1
S31508001B6839E7012437E7022435E7032433E7042451
S31508001B7831E705242FE706242DE707242BE7082451
S31508001B8829E703B0F0BD00BF000400580044025816
S31508001B9800000258002331FA03F200F09D80F0B5E0
S31508001BA82EE0092500E0002505FA0CF5A54272D0B5
S31508001BB804685D004FF0030C0CFA05FC44EA0C04B3
S31508001BC804604FEAD30E0EF1080E50F82E4003F0C3
S31508001BD80706B6000F25B54024EA050440F82E4046
S31508001BE8C46824EA0C04C460446824EA0202426011
S31508001BF8826822EA0C028260013331FA03F26AD05B
S31508001C0801229A4012EA010EF6D09E08B51C334CFA
S31508001C1854F8254003F0030C4FEA8C0C0F2505FAF7
S31508001C280CF73C402E4DA842BDD005F58065A84264
S31508001C3821D005F58065A8421FD005F58065A8421C
S31508001C481DD005F58065A8421BD005F58065A84214
S31508001C5819D005F58065A84217D005F58065A8420C
S31508001C6815D005F58065A84213D005F58065A84204
S31508001C7897D00A2598E7012596E7022594E70325CC
S31508001C8892E7042590E705258EE706258CE70725BC
S31508001C988AE7082588E74FF0B044D4F8805025EA43
S31508001CA80E05C4F88050D4F8845025EA0E05C4F801
S31508001CB88450656825EA0E056560256825EA0E05D7
S31508001CC82560DFF818C0B41C5CF8245025EA070517
S31508001CD84CF824506CE7F0BD704700BF0004005864
S31508001CE8000002582DE9F04383B0D0F8008001EBD4
S31508001CF8C10300EB83039A6A5B6A9A4254D807467B
S31508001D080C469B1A01EBC10200EB8202D2699A4281
S31508001D1800D31A4602F103094FEA990915E006F1B4
S31508001D2803094FEA9909BB7904EBC40507EB85054E
S31508001D38296A0093B3B2E2B2404602F04CF82B6A1D
S31508001D4833442B62AB6A3344AB6208EB441303F59E
S31508001D5810639B699BB24B4512D304EBC40307EB8C
S31508001D6883039A6A5B6A9A420AD24BB19B1A04EBB6
S31508001D78C40207EB8202D6699E42D0D31E46CEE736
S31508001D8804EBC40307EB83077A6ABB6A9A420FD83F
S31508001D9804F00F040122A240D8F8343823EA0203D3
S31508001DA8C8F83438002000E0012003B0BDE8F08305
S31508001DB80020FAE730B583B000287AD0044690F8B0
S31508001DC89534ABB1032384F89534206801F0BCFD3B
S31508001DD8237C8DF80030231D0ECB206801F0EAFC21
S31508001DE858B1022384F895340125284603B030BD36
S31508001DF880F89434FEF7D6FCE4E70021206802F060
S31508001E081CFA024608B9034617E0022384F89534F3
S31508001E180125EAE703EBC30104EB810101204875B4
S31508001E280B75CB8500200876C861086203EBC301E9
S31508001E3804EB810148620133DBB220799842E9D87C
S31508001E4816E002EBC20304EB8303002183F855125C
S31508001E5883F8542283F85812C3F85C12C3F8601240
S31508001E6802EBC20304EB8303C3F864120132D2B24D
S31508001E789042E6D8237C8DF80030231D0ECB2068C7
S31508001E8801F0B8FD054658B900236374012384F8A0
S31508001E989534237B012B08D0206802F08DF9A4E736
S31508001EA8022384F8953401259FE7204600F0ECFDC7
S31508001EB8F2E7012599E738B590B10446032380F877
S31508001EC89534006802F03AF9054610B10125284606
S31508001ED838BD2046FEF7AEFC002384F89534F6E7AD
S31508001EE80125F4E7036890F89424012A1AD010B556
S31508001EF80446012280F89424DA6812F0400F02D0CA
S31508001F08427B012A09D0206801F018FD206802F0F2
S31508001F1845F9002084F8940410BD9A6B42F480327F
S31508001F289A63F0E70220704738B5056890F8943444
S31508001F38012B1DD00446012380F89434284601F065
S31508001F4803FD206802F038F91021206801F002FD27
S31508001F58EB6813F0400F02D0637B012B03D00020F7
S31508001F6884F8940438BDAB6B23F48033AB63F6E787
S31508001F780220F7E770B504460D460068066C00EBC4
S31508001F88411303F530639A68A179012911D03849B4
S31508001F988E4256D03DB905EBC50304EB8303D3F847
S31508001FA86432002B5ED0E9B2204604F0F1F900202D
S31508001FB870BD12F0080F09D02E498E42F7D912F4CF
S31508001FC8004FF4D04FF400429A60F0E712F0200F61
S31508001FD802D020229A60EAE712F0280FE7D12549AD
S31508001FE88E4206D912F4004F03D04FF400429A6085
S31508001FF8DDE705EBC50204EB8202D2F874121B6909
S31508002008C3F31203CB1AC2F868327DB905EBC502C9
S3150800201804EB8202D2F864226AB105EBC50204EB26
S315080020288202D2F860121944C2F86012E9B2204650
S3150800203804F0AEF9BBE704F29C42012102F03EF92E
S31508002048F4E712F4004F03D04FF400429A60AEE763
S3150800205812F0200F01D020229A60E9B2204604F037
S3150800206897F9A4E704F29C42002102F027F99AE7B7
S315080020780A31544F0A30544F38B5044603681D6C64
S3150800208803EB4113D3F8081B0E4A954207D903F503
S31508002098306311F4004F02D04FF400429A6020468C
S315080020A804F06EF9074B9D4202D9A379012B01D09A
S315080020B8002038BD04F29C420121206802F0FEF88F
S315080020C8F6E700BF0A30544F036890F89424012AAB
S315080020D817D010B50446012280F89424DA6812F05D
S315080020E8400F02D0427B012A06D0206802F056F833
S315080020F8002084F8940410BD9A6B42F480329A63DF
S31508002108F3E70220704738B5056890F89434012B30
S3150800211816D00446012380F89434284602F04CF871
S31508002128EB6813F0400F02D0637B012B03D0002025
S3150800213884F8940438BDAB6B23F48033AB63F6E7B5
S315080021480220F7E790F89434012B0CD010B5044612
S31508002158012380F894344174006802F00FF80020CF
S3150800216884F8940410BD0220704738B505468C4695
S3150800217811F0800F29D101F00F0E0EEBCE04A40042
S3150800218804F514740444211D0EEBCE0E00EB8E0ED6
S3150800219800208EF855020CF00F0C81F800C08A60F2
S315080021A80B714A780AB1A1F81AC0022B1CD095F807
S315080021B89434012B1BD0012385F89434286801F040
S315080021C8EFFC002085F8940438BD01F00F0000EBF9
S315080021D8C001890010312944043100EBC00005EB21
S315080021E8800001244475D6E700234B71DFE70220F7
S315080021F8EAE710B504460A4611F0800F20D101F027
S315080022080F0000EBC0039B0003F514732344191D44
S3150800221800EBC00004EB8000002380F8553202F07A
S315080022280F020A7094F89434012B18D0012384F805
S315080022389434206801F000FD002084F8940410BD49
S3150800224801F00F0000EBC0039B0010332344191D4F
S3150800225800EBC00004EB800001234375DFE702208A
S31508002268EDE710B5144601F00F0C0CEBCC0189000C
S3150800227801F51471014404310CEBCC0E00EB8E0EFB
S31508002288CEF86022CEF864320023CEF868328EF88B
S3150800229855328EF854C28279012A04D0006801F0B2
S315080022A8B1FD002010BDCEF87042F7E701F00F0126
S315080022B801EBC10100EB8100D0F86802704710B540
S315080022C8144601F00F0C0CEBCC01890010310144BF
S315080022D804310CEBCC0E00EB8E0ECEF82020CEF88F
S315080022E824300023CEF8283001238EF815308EF8CE
S315080022F814C082799A4204D0006801F083FD002050
S3150800230810BDCEF83040F7E738B501F00F05027969
S31508002318AA4238D304460B4611F0800F1FD101EBA9
S31508002328C101890001F514710144043103EBC303A3
S3150800233800EB8303002283F8552201238B700D7066
S3150800234894F89434012B20D0012384F89434206817
S3150800235801F099FE85B1002084F8940438BD05EB90
S31508002368C501890010310144043105EBC50300EBAA
S31508002378830301225A75E0E704F29C42A179206892
S3150800238801F09CFFE7E70120E8E70220E6E701F00D
S315080023980F0302799A4230D310B5044611F0800F1C
S315080023A81ED103EBC301890001F5147101440431F8
S315080023B803EBC30200EB8202002082F855020022D2
S315080023C88A700B7094F89434012B18D0012384F87A
S315080023D89434206801F084FE002084F8940410BD23
S315080023E803EBC301890010310144043103EBC3022E
S315080023F800EB820201205075E1E7012070470220B0
S31508002408EDE708B511F0800F0CD101F00F0101EBCB
S31508002418C101890001F5147101440431006801F00D
S315080024287BFC08BD01F00F0101EBC10189001031E1
S3150800243801440431F2E72DE9F04F83B004460568F4
S31508002448284601F0F6FE10B103B0BDE8F08F06463F
S31508002458206801F0BFFE0028F6D005F50067BB68BE
S31508002468C3F30D23C4F8D434206801F0B3FE10F082
S31508002478020F04D02268536903F0020353612068E7
S3150800248801F0A8FE10F0100F14D02268936923F003
S3150800249810039361D5F8208008F00F09C8F3434361
S315080024A8022B69D0062B00F08D802268936943F0C9
S315080024B810039361206801F08DFE10F4002F40F098
S315080024C89380206801F086FE10F4802F40F0FC8087
S315080024D8206801F07FFE0028C0F27D81206801F09F
S315080024E879FE10F4006F09D0BB6813F0010F40F0AD
S315080024F88A812268536903F400635361206801F0EE
S3150800250869FE10F0006F15D02268536903F000635E
S31508002518536194F8CC34002B40F07981012184F872
S31508002528CC1423685B6DC3F38303C4F8D034204600
S3150800253800F0BEFA206801F04DFE10F4805F40F006
S315080025486A81206801F046FE10F4005F40F0B68103
S31508002558206801F03FFE10F0080F40F0C781206898
S3150800256801F038FE10F0800F00F0DA81AB6923F02D
S315080025788003AB610126C3E147F6F07318EA030F37
S3150800258893D04FEA181A4FEAC903019309EBC90B06
S3150800259804EB8B0BC8F30A12DBF86012284601F025
S315080025A84FFDDBF86032CAF30A0A5344CBF86032A7
S315080025B8DBF86832019A4A4404EB82025344C2F8AB
S315080025C8683272E7082204F29C41284601F038FD71
S315080025D809EBC90304EB8303D3F86822C8F30A187E
S315080025E84244C3F8682260E7206801F0F7FD804690
S315080025F8B14635E005EB49130122C3F8082B4946CD
S315080026082046FFF7B7FC3CE005EB49130822C3F858
S31508002618082B49462046FFF72FFD35E009EBC90385
S3150800262804EB830393F85732012B41D005EB491382
S315080026380222C3F8082B1AF0200F04D005EB491319
S315080026482022C3F8082B1AF4005F05D005EB4913B6
S315080026584FF40052C3F8082B09F101094FEA580844
S31508002668B8F1000F3FF42DAF18F0010FF4D05FFA58
S3150800267889FB5946206801F0C1FD824610F0010F12
S31508002688B8D11AF0080FBFD11AF0100F04D005EB0D
S3150800269849131022C3F8082B1AF0020FCBD06B691E
S315080026A813F0800FBAD07B6843F480637B60B5E784
S315080026B809EBC90304EB8303002283F8572259461A
S315080026C8204603F0BEFEB1E7206801F08FFD80467C
S315080026D8B14625E05946204603F066FE1AF0080F6B
S315080026E804D005EB49130822C3F808291AF0100F75
S315080026F804D005EB49131022C3F808291AF0400F2D
S3150800270804D005EB49134022C3F808291AF0020F2A
S3150800271840D11AF0800F59D109F101094FEA580832
S31508002728B8F1000F3FF4D4AE18F0010FF4D05FFAF1
S3150800273889FB5946206801F06AFD824610F0010FA8
S31508002748CCD009F00F02012101FA02F27B6B23EAC9
S3150800275802037B6305EB4913C3F80819A3798B426F
S31508002768B8D109EBC90304EB83031A6AD9690A4481
S315080027781A62B9F1000FADD109EBC90304EB83035B
S315080027885B6A002BA6D104F29C420121206801F05D
S3150800279895FD9FE74946284601F0DCF809EBC90389
S315080027A804EB8303DB7D012B05D005EB49130222D5
S315080027B8C3F80829ADE709EBC90304EB830300222C
S315080027C8DA755946204603F042FEEEE749462046A2
S315080027D8FFF788FAA0E77B6823F001037B6094F883
S315080027E8CC34012B08D0204603F022FE2268536910
S315080027F803F00043536171E6002184F8CC1420469F
S3150800280800F056F9F2E7204603F0F8FD71E620468F
S3150800281803F0F4FD8EE67B6823F001037B60102144
S31508002828206801F097F81AE005EB46134FF67F3152
S31508002838C3F80819D3F8002922F40012C3F80029A6
S31508002848C3F8081BD3F8002B22F40012C3F8002B90
S31508002858D3F8002B42F00062C3F8002B013623791F
S31508002868B342E1D8FB6943F00113FB61E37BDBB1B3
S31508002878D7F8843043F00B03C7F884307B6C43F0F1
S315080028880B037B64D5F8003823F4FE63C5F80038D3
S3150800289804F29C42A179206801F010FD2268536968
S315080028A803F4805353614CE67A6942F22B031343C7
S315080028B87B613B6943F00B033B61E3E7206801F062
S315080028C8EDFC206801F05CF9E071266800F0F4F97F
S315080028D80146E279304600F0BFFF204603F076FD50
S315080028E82268536903F40053536131E6204603F01E
S315080028F866FD2268536903F0080353612FE601361B
S315080029082379B3420CD906EBC60304EB830393F881
S315080029185732012BF3D1F1B22046FFF772FDEEE7E5
S31508002928206801F057FC10F4801F25D1206801F0B3
S3150800293851FC10F4001F59D0012326E001362379EB
S31508002948B3421BD905EB4613D3F8002906EBC60391
S3150800295804EB83031B7E012BF0D1002AEEDA06EB83
S31508002968C60304EB83030122DA7566F07F01C9B250
S315080029782046FFF746FDE1E70126E0E722685369A6
S3150800298803F480135361D1E7013322799A4228D98F
S3150800299805EB4312D2F8001B03EBC30204EB8202D1
S315080029A892F85822012AEFD10029EDDA01F480318C
S315080029B8D4F8D42402F001029142E5D103EBC3020C
S315080029C804EB8202012182F85712AA6942F08002B2
S315080029D8AA616A6912F0800FD6D17B6843F400733E
S315080029E87B602268536903F400135361206801F079
S315080029F8F1FB10F0804F10D1206801F0EBFB10F0C6
S31508002A08040F3FF421AD23685D6815F0040F0DD156
S31508002A18226853682B43536016E5204603F01DFDCC
S31508002A282268536903F080435361E5E7204603F0BB
S31508002A381EFDEDE710B40468606A31B940EA024041
S31508002A48A06200205DF8044B70478C46A36A00EB29
S31508002A581340002308E003F1400104EB81014968AB
S31508002A6800EB11400133DBB20CF1FF318B42F2D394
S31508002A7840EA02400CF13F0104EB81046060E0E79C
S31508002A880368596200207047034602680121C0F8A6
S31508002A98D814002083F8CC04936943F00063936143
S31508002AA8516D024B0B435365704700BF0300001076
S31508002AB870470000024AD36843F08073D3607047B2
S31508002AC800480258744B1B6903F03803102B00F0B2
S31508002AD8DE80182B0FD00BB1704870476E4B1B68F9
S31508002AE813F0200F00F0D5806B4B1B68C3F3C103A6
S31508002AF86B48D840704710B4674B9A6A02F00302CD
S31508002B089C6AC4F30510D96A01F001015B6BC3F32B
S31508002B18CC0301FB03F307EE903AF8EE677A14F450
S31508002B287C7F00F09480012A66D0022A00F0928001
S31508002B38E2B107EE100AF8EE476A9FED5A6A86EE82
S31508002B48267A554B1B6BC3F3080306EE903AF8EE44
S31508002B58666A9FED556A67EE867A76EEA77AF7EE85
S31508002B68006A77EEA67A27EE277A61E04A4B1B6851
S31508002B7813F0200F23D048490A68C2F3C102484B0C
S31508002B88D34007EE103AF8EE476A07EE100AB8EE91
S31508002B98476A86EE867A0B6BC3F3080306EE903A05
S31508002BA8F8EE666A9FED406A67EE867A76EEA77A49
S31508002BB8F7EE006A77EEA67A27EE277A38E007EE68
S31508002BC8100AF8EE476A9FED396A86EE267A324B7E
S31508002BD81B6BC3F3080306EE903AF8EE666A9FED98
S31508002BE8326A67EE867A76EEA77AF7EE006A77EEA5
S31508002BF8A67A27EE277A1BE007EE100AF8EE476A48
S31508002C089FED286A86EE267A234B1B6BC3F30803C7
S31508002C1806EE903AF8EE666A9FED236A67EE867ABC
S31508002C2876EEA77AF7EE006A77EEA67A27EE277A7F
S31508002C38194B1B6BC3F34623013307EE903AF8EE9C
S31508002C48677AC7EE276AFCEEE67A17EE900A5DF809
S31508002C58044B704707EE100AF8EE476A9FED146AA8
S31508002C6886EE267A0C4B1B6BC3F3080306EE903ADE
S31508002C78F8EE666A9FED0C6A67EE867A76EEA77AAC
S31508002C88F7EE006A77EEA67A27EE277AD0E709489C
S31508002C9870470348704700BF0044025800093D00C2
S31508002CA80090D0030024744A000000390024744CAC
S31508002CB80024F44A00127A0008B5FFF703FF0B4A06
S31508002CC89369C3F303230A49CB5C03F01F0320FA6D
S31508002CD803F3926902F00F02885C00F01F0023FADA
S31508002CE800F0044A1060044A136008BD00440258FC
S31508002CF8D066000800000024040000246A4B9842A5
S31508002D0822D06A4B98422FD0694B98423CD0694BDF
S31508002D18984249D0684B984256D0684B984263D037
S31508002D28674B984270D0674B98427DD0664B98425D
S31508002D3800F08A80654B984200F09680644B98426A
S31508002D4800F0A2800120704703F58843D3F888204D
S31508002D5842F00102C3F88820D3F8882022F001023D
S31508002D68C3F888200020704703F58043D3F88820E5
S31508002D7842F00202C3F88820D3F8882022F002021B
S31508002D88C3F888200020704703F57053D3F88820C5
S31508002D9842F00402C3F88820D3F8882022F00402F7
S31508002DA8C3F888200020704703F56053D3F88820B5
S31508002DB842F00802C3F88820D3F8882022F00802CF
S31508002DC8C3F888200020704703F55053D3F88820A5
S31508002DD842F01002C3F88820D3F8882022F010029F
S31508002DE8C3F888200020704703F54053D3F8882095
S31508002DF842F02002C3F88820D3F8882022F020025F
S31508002E08C3F888200020704703F53053D3F8882084
S31508002E1842F04002C3F88820D3F8882022F04002FE
S31508002E28C3F888200020704703F52053D3F8882074
S31508002E3842F08002C3F88820D3F8882022F080025E
S31508002E48C3F888200020704703F51053D3F8882064
S31508002E5842F48072C3F88820D3F8882022F4807256
S31508002E68C3F888200020704703F50053D3F8882054
S31508002E7842F40072C3F88820D3F8882022F4007236
S31508002E88C3F888200020704703F5E053D3F8882054
S31508002E9842F48062C3F88820D3F8882022F4806236
S31508002EA8C3F888200020704700000258000402581A
S31508002EB800080258000C025800100258001402585C
S31508002EC800180258001C025800200258002402580C
S31508002ED80028025870B50A6892FAA2F212B1B2FA34
S31508002EE882F21BE0202219E0C46803FB03FE0EEBFE
S31508002EF84E056FEA050C24EA05040D690EFB05F56F
S31508002F082C43C4604C68022C2DD04C6803680CEA24
S31508002F1803030EFB04F42343036001320B6833FAF8
S31508002F2802F443D04FF0010C0CFA02FC1CEA030326
S31508002F38F3D04C68013C012CD6D88D68846803FB0D
S31508002F4803FC0CEB4C0624EA06040CFB05F52C439B
S31508002F5884600D68CE68446824EA050406FB05F50E
S31508002F682C434460C0E7FF2B0ED84C69056A0EFB54
S31508002F7803F603FB06F6C6EB061325EA030306FB68
S31508002F8804F423430362C0E74C69456A1B0A03FB3A
S31508002F9803F603FB06F606FB03F3C3EB031625EA5B
S31508002FA8060503FB04F42C434462AEE7002070BD13
S31508002FB8C2B2054BD358020EC0F304218A40134007
S31508002FC8CB4040EA034070474C440258044B9B697F
S31508002FD803F00F03034AD35C03F01F03D840704776
S31508002FE800440258F0660008044BDB69C3F3021371
S31508002FF8034AD35C03F01F03D840704700440258BD
S31508003008F0660008044BDB69C3F30223034AD35C62
S3150800301803F01F03D840704700440258F0660008BA
S31508003028334B1B6803F00F03062B06D8304A136880
S3150800303823F00F0343F0070313602E4A136843F07F
S315080030480103136000E033B92A4B1B6813F0040325
S31508003058F9D00123F7E7274A0021116110682649A4
S315080030680140116000E03AB1224A126812F0007273
S31508003078F9D01A46F7E73AB11E4A126812F0006202
S31508003088F9D01A46F7E732B11A4A126812F000520E
S31508003098F9D01A46F7E7174B9A61DA611A6217499F
S315080030A899621749D962174919635A639963DA63A2
S315080030B819645A64196821F4802119601A66996E88
S315080030C840F2FF720A439A66D3F8D02042F4803257
S315080030D8C3F8D020064B1B6813F0080F06D0044A1D
S315080030E8136823F00F0343F007031360704700BF04
S315080030F8002000520044025845EDF6EA0002020292
S315080031080000FF018002010105EE900A06EE101A7A
S3150800311807EE902A07EE103AF8EE655AB8EE466AB0
S31508003128C5EE866AF8EE677AB8EE477A9FED096AB9
S3150800313827EE067A77EE877A26EEA77ADDED007A05
S31508003148F8EE677AC7EE276AFCEEE67A17EE900A73
S31508003158704700BF000000392DE9F04182B00446E7
S31508003168394B9B6A03F00303012B5ED0022B63D00D
S31508003178002B4FD00026002323606360A360324BE0
S315080031889F6AC7F305171A6BC2F3080202F101080A
S31508003198DD6A15F0010502D05D6BC5F3CC05002F75
S315080031A835D0294BDB6A13F4803F0CD0264B1B6BB2
S315080031B8C3F34623013300932B4642463946304625
S315080031C8FFF7A2FF2060204BDB6A13F4003F0CD000
S315080031D81D4B1B6BC3F30643013300932B4642462C
S315080031E839463046FFF790FF6060174BDB6A13F4E1
S315080031F8802F0CD0144B1B6BC3F306630133009363
S315080032082B46424639463046FFF77EFFA06002B095
S31508003218BDE8F0810C4B1E6816F00406ABD01B6897
S31508003228C3F3C103094EDE40A5E7074B1E6816F42B
S315080032388076A0D0064E9EE7034B1E6816F4003625
S3150800324899D0044E97E700BF004402580090D0036F
S3150800325800093D0000127A00154B1B6903F0380374
S31508003268182B0ED8DFE803F00F0D0D0D0D0D0D0DFB
S31508003278210D0D0D0D0D0D0D160D0D0D0D0D0D0D4B
S315080032881800002070470A4B1B68C3F3C103094896
S31508003298D84070470848704700B585B001A8FFF7B9
S315080032A85BFF019805B05DF804FB0448704700BF4A
S315080032B8004402580090D00300127A0000093D0025
S315080032C82DE9F04182B00446394B9B6A03F00303A3
S315080032D8012B5ED0022B63D0002B4FD0002600238B
S315080032E823606360A360324B9F6AC7F305379A6BFE
S315080032F8C2F3080202F10108DD6A15F0100502D0CA
S31508003308DD6BC5F3CC05002F35D0294BDB6A13F4E2
S31508003318002F0CD0264B9B6BC3F34623013300932F
S315080033282B46424639463046FFF7EEFE2060204BCC
S31508003338DB6A13F4801F0CD01D4B9B6BC3F3064343
S31508003348013300932B46424639463046FFF7DCFEE2
S315080033586060174BDB6A13F4001F0CD0144B9B6B89
S31508003368C3F30663013300932B4642463946304673
S31508003378FFF7CAFEA06002B0BDE8F0810C4B1E68D4
S3150800338816F00406ABD01B68C3F3C103094EDE402A
S31508003398A5E7074B1E6816F48076A0D0064E9EE76A
S315080033A8034B1E6816F4003699D0044E97E700BFFB
S315080033B8004402580090D00300093D0000127A0024
S315080033C82DE9F04182B004463A4B9B6A03F00303A1
S315080033D8012B60D0022B65D0002B51D00026002384
S315080033E823606360A360334B9F6AC7F305571A6C5B
S315080033F8C2F3080202F10108DD6A15F4807502D0E5
S315080034085D6CC5F3CC05002F18BF002E35D0294BA7
S31508003418DB6A13F4800F0CD0264B1B6CC3F34623C8
S31508003428013300932B46424639463046FFF76CFE71
S315080034382060204BDB6A13F4000F0CD01D4B1B6C65
S31508003448C3F30643013300932B46424639463046B2
S31508003458FFF75AFE6060174BDB6A13F0807F0CD0C3
S31508003468144B1B6CC3F30663013300932B46424681
S3150800347839463046FFF748FEA06002B0BDE8F0813D
S315080034880C4B1E6816F00406A9D01B68C3F3C103C3
S31508003498094EDE40A3E7074B1E6816F480769ED0D1
S315080034A8064E9CE7034B1E6816F4003697D0044E62
S315080034B895E700BF004402580090D00300093D0074
S315080034C800127A0000B585B0FFF772FD434B9842A3
S315080034D80CD03DD8A3F5003398426ED010D9404B8E
S315080034E8984229D003F57D43984221D13D4B186867
S315080034F810F0005019D001A8FFF762FF029814E0EF
S31508003508A3F5407398420FD1FFF7A6FE354B9B6982
S31508003518C3F30323344AD35C03F01F03D840FFF7E9
S3150800352855FDFFF761FD00E0002005B05DF804FBD6
S31508003538A3F58033984209D12A4B186810F0006021
S31508003548F3D001A8FFF7BCFE0298EEE70020ECE7E7
S31508003558264B984217D00ED9254B984203D003F527
S315080035684073984227D11F4B186F10F00200DCD021
S315080035784FF40040D9E7A3F5803398420ED003F5F7
S315080035887D43984206D1174B186810F48070CCD042
S315080035981848CAE7A3F5803398420AD1114B186828
S315080035A810F00400C1D01B68C3F3C1031248D84001
S315080035B8BBE70020B9E70020B7E7FFF74DFE094B40
S315080035C89B69C3F30323084AD35C03F01F03D84057
S315080035D8FFF7FCFCFFF716FDA7E700BF080302077D
S315080035E80803010700440258F066000808030407A0
S315080035F80800050700093D000090D0030B2A28D8C3
S3150800360810B4019C7CB1B3F5004F0FD0D2B2114B60
S3150800361853F82230B1FBF3F1019B01EB5301B1FBDF
S31508003628F3F189B2C1605DF8044B7047D2B2094B11
S3150800363853F82220B1FBF2F2630803EB4203B3FB0B
S31508003648F4F34FF6F0721A40C3F342031343C36008
S31508003658E9E7704700670008036813F0010F6BD1A4
S3150800366830B583B004460D460368344A1A408B6859
S3150800367809690B4369690B43E9690B431A430260F5
S31508003688EB68426822F4405213434360AB69826888
S3150800369822F4407213438360294B984216D0294B6B
S315080036A898421BD0284B98421CD0284B98421DD0CC
S315080036B8274B98421ED0274B98421FD0264B984234
S315080036C820D0264B984221D001202DE02448FFF728
S315080036D8F9FE40B36B68EBB9012025E02148FFF7EE
S315080036E8F1FEF6E71F48FFF7EDFEF2E71D48FFF77C
S315080036F8E9FEEEE71B48FFF7E5FEEAE71848FFF795
S31508003708E1FEE6E71748FFF7DDFEE2E71548FFF7AB
S31508003718D9FEDEE70093EB692A6801462046FFF7DB
S315080037286DFF002000E00120E26A22F00F022B88D4
S315080037381343E36203B030BD01207047F369FFEF16
S31508003748001001400044004000480040004C00407A
S31508003758005000400014014000780040007C0040FA
S31508003768080300070800000782B000230193019B9D
S3150800377801330193019BB3F1706F15D80369002BC8
S31508003788F5DA00230193036943F001030361019BFA
S3150800379801330193019BB3F1706F08D8036913F0DD
S315080037A8010FF4D1002000E0032002B0704703207F
S315080037B8FBE7000084B010B5044603A880E80E00AD
S315080037C89DF81130012B1FD1A36B23F48033A36313
S315080037D8E2681F4B1340E360E36823F44013E36091
S315080037E89DF81830012B0AD02046FFF7BDFF9DF833
S315080037F80E30012B1CD0BDE8104004B07047E368B2
S3150800380843F48013E360EFE7E36843F04003E360BB
S315080038182046FFF7A9FF9DF8153023B9A36B43F493
S315080038288033A363E3E7A36B23F48033A363DEE75C
S31508003838E36D9BB2E365E26D064B1343E365A36844
S3150800384843F00603A360A36843F02003A360D2E706
S31508003858BFFFBDFF0000EE03022A0AD00922C3688B
S3150800386823F47053C360C36843EA8223C360002005
S315080038787047204B0B44204A934229D91F4B0B44C7
S315080038881F4A934226D91F4B0B441F4A934223D9F2
S315080038981E4B0B441E4A934220D31E4B0B441E4A0A
S315080038A893421DD91D4B0B441D4A93421AD31D4BEF
S315080038B80B441D4A934217D31C4B0B441C4A93428C
S315080038C814D31C4B0B441C4A934211D20722C6E751
S315080038D80F22C4E70E22C2E70D22C0E70C22BEE774
S315080038E80B22BCE70A22BAE70922B8E70822B6E794
S315080038F80622B4E7405327FFFF340C00401E1BFF7F
S315080039083F420F0000DC0BFF7F4F1200808CF9FE48
S3150800391820D6130060B6E5FE5FE3160000D3CEFE98
S3150800392840771B00C05BB3FEC091210000CA91FE18
S3150800393820753800E05459FEE09C4100836843F03E
S315080039480103836000207047836823F001038360BE
S315080039580020704782B000230193019B013301932D
S31508003968019BB3F1706F15D80369002BF5DA0023AC
S315080039780193890141F020010161019B01330193FB
S31508003988019BB3F1706F08D8036913F0200FF4D1BF
S31508003998002000E0032002B070470320FBE782B04E
S315080039A800230193019B01330193019BB3F1706FC7
S315080039B813D80369002BF5DA002301931023036152
S315080039C8019B01330193019BB3F1706F08D8036912
S315080039D813F0100FF4D1002000E0032002B070475E
S315080039E80320FBE7D0F800381943C0F80018002070
S315080039F87047000084B0F8B5044607A880E80E00AA
S31508003A08002306E003F1400204EB8202002151601C
S31508003A1801330E2BF6D99DF8266006BBD4F8043870
S31508003A2843F00203C4F80438A36B23F40013A36312
S31508003A38236843F040032360236843F08003236028
S31508003A480023C4F8003E9DF82130012B11D19DF8BA
S31508003A581F304BB900212046FFF7C4FF0DE0A36BC2
S31508003A6843F40013A363EBE701212046FFF7BAFFE7
S31508003A7803E003212046FFF7B5FF10212046FFF78C
S31508003A8869FF054600B101252046FFF788FF00B102
S31508003A98012504F5006C0023CCF81030CCF8143056
S31508003AA8CCF81C300AE0CBB94FF00060C2F8000920
S31508003AB800220A614FF67F328A6001339DF81C108E
S31508003AC8994210D904EB431202F51061D2F800099D
S31508003AD80028E8DB0020C2F80009E9E74FF0904023
S31508003AE8C2F80009E4E700230AE0BBB14FF09047A3
S31508003AF8C2F8007B002202614FF67F3282600133EA
S31508003B08994210D904EB431202F53060D2F8007BCB
S31508003B18002FEADB0027C2F8007BEBE74FF00067C7
S31508003B28C2F8007BE6E7DCF8103023F48073CCF89B
S31508003B3810300023A3616FF0804363619DF81E303F
S31508003B481BB9A36943F01003A361A2690A4B13437F
S31508003B58A3619DF822301BB1A36943F00803A3614A
S31508003B68012E04D02846BDE8F84004B07047A2697B
S31508003B78024B1343A361F5E700383C800400004074
S31508003B88D0F8083813F0060305D0062B18BF022B01
S31508003B9803D102207047002070470F2070470000A5
S31508003BA810B591F800C04B78012B21D000F5006EAE
S31508003BB8D0F81C380CF00F040122A24043EA02434D
S31508003BC8C0F81C3800EB4C10D0F8003B13F4004F33
S31508003BD80CD1D0F8002B8B68C3F30A03097943EA9A
S31508003BE881431A43134B1343C0F8003B002010BD0A
S31508003BF8D0F81C280CF00F0E03FA0EF39BB21343E9
S31508003C08C0F81C3800EB4C10D0F8003913F4004FF4
S31508003C18ECD1D0F800298B68C3F30A03097943EA7B
S31508003C28814343EA8C531A43024B1343C0F80039BD
S31508003C38DCE700BF0080001030B40B784A78012A08
S31508003C4826D000EB4313D3F8002B002A52DBD0F812
S31508003C583C480A7802F00F024FF0010C0CFA02F2FF
S31508003C6824EA0242C0F83C28D0F81C28097801F052
S31508003C780F010CFA01FC22EA0C42C0F81C28D3F8FA
S31508003C88001B234A0A40C3F8002B002030BC7047A3
S31508003C9800EB4313D3F80029002A1EDBD0F83C585A
S31508003CA80A7802F00F02012404FA02F292B225EA0F
S31508003CB80202C0F83C28D0F81C28097801F00F0140
S31508003CC88C40A4B222EA0402C0F81C28D3F80019CA
S31508003CD8104A0A40C3F80029D7E7D3F8002942F062
S31508003CE80062C3F80029D3F8002942F08042C3F8D5
S31508003CF80029D3E7D3F8002B42F00062C3F8002B5B
S31508003D08D3F8002B42F08042C3F8002B9FE700BF88
S31508003D180078F3EF007833EC10B483B0024600233A
S31508003D280193487801280BD00B7802EB4313D3F894
S31508003D38000B00282DDB002003B05DF8044B704704
S31508003D480B7802EB4313D3F80049002C01DB00205B
S31508003D58F2E7D3F8004944F00064C3F800490B7841
S31508003D6802EB4313D3F8004944F08044C3F80049EA
S31508003D78019B01330193019C42F210739C42DBD8E4
S31508003D880B7802EB4313D3F80039002BF0DB00203D
S31508003D98D2E7D3F8000B40F00060C3F8000B0B78A5
S31508003DA802EB4313D3F8000B40F08040C3F8000B2E
S31508003DB8019B01330193019842F21073984208D87F
S31508003DC80B7802EB4313D3F8003B002BF0DB0020FB
S31508003DD8B2E70120B0E710B59DF8084084B9033367
S31508003DE84FEA930E4FF0000C08E000EB023303F598
S31508003DF8805351F8044B1C600CF1010CF445F4D3BC
S31508003E08002010BDF0B583B00C784B78012B2DD067
S31508003E1800EB441C0CF530631E69864D35401D6160
S31508003E281E69854D35401D61002C40F0C7800C6918
S31508003E380CB18C680C618C680C621D69C4F3120499
S31508003E482C431C611C6944F400241C61012A00F0F7
S31508003E58D8800B79012B00F0DA80DCF8003B43F0B8
S31508003E680443CCF8003B002003B0F0BD0B6973BBD4
S31508003E7800EB4413D3F810696F4D3540C3F8105951
S31508003E88D3F8105945F40025C3F81059D3F8106922
S31508003E98684D3540C3F81059012A4DD000EB441433
S31508003EA8D4F8003943F00443C4F800390B79012BD8
S31508003EB86BD00B69002BD6D0D0F83438097801F0C6
S31508003EC80F0101228A401343C0F83438CBE700EBC8
S31508003ED8441303F510631E69564D35401D611E6966
S31508003EE8554D35401D61D4B90E698D68AE4200D965
S31508003EF80D611D6945F400251D611D690E69C6F326
S31508003F08120635431D610D79012DC5D11D6925F0A8
S31508003F18C0451D611D6945F000551D61BCE71E6950
S31508003F280D698F683D44013DB5FBF7F5434F07EA30
S31508003F38C54535431D61E0E7CB691BB100EB441263
S31508003F48C2F814390B79012B08D000EB4414D4F8BD
S31508003F58003943F00443C4F8003984E7D0F8083830
S31508003F6813F4807F08D100EB4412D2F8003943F0E5
S31508003F780053C2F80039E8E700EB4412D2F80039D2
S31508003F8843F08053C2F80039DFE7D0F8083813F44D
S31508003F98807F0CD1D4F8003943F00053C4F80039AF
S31508003FA800920B8A0A78C968FFF715FF5BE7D4F809
S31508003FB8003943F08053C4F80039F1E70C6954B95D
S31508003FC81C698D68C5F312052C431C611C6944F4E9
S31508003FD800241C613AE78D682C44013CB4FBF5F4CF
S31508003FE8A4B204FB05F50D621D69144E06EAC4441D
S31508003FF82C431C611C690D6AC5F312052C431C6108
S3150800400824E7CA68002A3FF424AF5A6121E7D0F8A2
S31508004018083813F4807F06D1DCF8003B43F00053D8
S31508004028CCF8003B19E7DCF8003B43F08053CCF8A2
S31508004038003B12E70000F8FFFFFF07E00000F81F43
S3150800404810B5844608464FEA920E02F0030200238A
S3150800405805E00CF58051096840F8041B01337345DF
S31508004068F7D37AB10CF5805CDCF800400021CBB2B6
S31508004078DB0024FA03F300F8013B0131013A92B256
S31508004088002AF4D110BD0B784A78012A14D000EB1F
S315080040984310D0F8002B002A06DB2BB1D0F8003BDA
S315080040A823F08043C0F8003BD0F8003B43F40013E4
S315080040B8C0F8003B0020704700EB4310D0F80029F1
S315080040C8002A06DB2BB1D0F8003923F08043C0F864
S315080040D80039D0F8003943F40013C0F80039E9E785
S315080040E80B784A78012A0ED000EB4310D0F8003B2B
S315080040F823F40013C0F8003B0B79023BDBB2012B13
S3150800410815D90020704700EB4310D0F8003923F47E
S315080041180013C0F800390B79023BDBB2012BF0D843
S31508004128D0F8003943F08053C0F80039E9E7D0F8E9
S31508004138003B43F08053C0F8003BE2E710B504465D
S31508004148002208E004EB42134FF67F31C3F808193A
S31508004158C3F8081B01320E2AF4D90022C4F810281D
S31508004168C4F81428C4F81C282046FFF718FC00B120
S3150800417810BD10212046FFF7EDFBF9E7D0F8003807
S3150800418823F4FE63C0F80038D0F80038090101F4B2
S31508004198FE610B43C0F8003800207047D0F8003E8F
S315080041A823F00303C0F8003ED0F8043823F00203CE
S315080041B8C0F8043800207047D0F8003E23F00303FF
S315080041C8C0F8003ED0F8043843F00203C0F80438B3
S315080041D8002070474269806910407047D0F818383F
S315080041E800F50060C0691840000C7047D0F8183808
S315080041F800F50060C069184080B2704700EB4111AD
S31508004208D1F8082B00F50060406910407047D0F8CF
S315080042181028D0F8343801F00F0C23FA0CF3DB0118
S31508004228DBB2134300EB411000F5106080681840B4
S315080042387047406900F00100704738B50546C368FD
S3150800424823F0C043C360012913D019BBC36843F0E0
S315080042588043C36000240A20FCF79AFC0A342846DF
S31508004268FFF7E7FF08B1C72CF5D9C82C14D00020EA
S3150800427838BDC36843F00053C36000240A20FCF71E
S3150800428887FC0A342846FFF7D4FF0128EDD0C72C47
S31508004298F4D9EAE70120EBE70120E9E7D0F8002995
S315080042A8054B1340C0F80039D0F8043843F4807336
S315080042B8C0F804380020704700F8FFFF10B4046CF3
S315080042C8154B9C4203D9D0F8003B002B16DB00247B
S315080042D8C0F8104BD0F8104B44F40024C0F8104B23
S315080042E8D0F8104B44F01804C0F8104BD0F8104B0F
S315080042F844F0C044C0F8104B012903D000205DF8EB
S31508004308044B7047C0F8142BD0F8003B43F08023C1
S31508004318C0F8003BF2E700BF0A30544F014B18605B
S31508004328704700BF04000024C0B108B50346D0F89A
S31508004338B80210B10020C3F8B802D3F8CC0210B1FD
S315080043480020C3F8CC0209B1C3F8B412012183F8D6
S315080043589C121A70184602F095F808BD0320704793
S3150800436810B50446012380F89C32D0F8B83213B148
S315080043785B6801799847D4F8CC3213B10023C4F89E
S31508004388CC32204602F0F0F800B110BD204602F003
S31508004398DBF8FAE710B582B00023ADF8063059B154
S315080043A80446C0F8B812CB6A0DF106009847C4F857
S315080043B8CC02002002B010BD0320FBE708B502F0C6
S315080043C8CBF808BD08B5D0F8B83213B11B689847BA
S315080043D808BD0320FCE708B5D0F8B8320BB15B680E
S315080043E89847002008BD38B5044600F2AA2528468D
S315080043F800F02EF90123C4F89432B4F8B032C4F8A0
S31508004408983294F8AA1201F01F03012B0DD0022B3B
S3150800441810D02BB101F08001204602F0C0F803E065
S315080044282946204600F0E0FA38BD2946204600F01D
S3150800443813FBF9E72946204600F042FBF4E738B5AE
S3150800444804460D4631BB1346D0F89422032A01D0F8
S31508004458084638BDD0F85C11D0F8602191420CD8CE
S31508004468D0F8B8321B691BB190F89C22032A0FD0E2
S31508004478204600F054FC2846EBE7891AC0F85C1178
S315080044888A4228BF0A46194600F041FC2846E0E752
S315080044989847EDE7D0F8B8329B692BB190F89C227B
S315080044A8032A03D19847D4E70320D2E70320D0E7A5
S315080044B838B504460D46002948D11346D0F8942243
S315080044C8022A05D094F8A032012B3AD0284638BDDE
S315080044D8C269016A8A4211D88A421BD0D4F8B8320E
S315080044E8DB681BB194F89C22032A27D08021204632
S315080044F802F055F8204600F01DFCE3E7521AC2619F
S31508004508194600F0FCFB00231A461946204602F015
S3150800451866F8D7E783699942E0D8D0F89822934293
S31508004528DCD20022114600F0EAFB0021C4F89812F2
S315080045380B460A46204602F052F8C3E72046984733
S31508004548D4E7002384F8A0322846C0E7D0F8B83262
S315080045585B692BB190F89C22032A03D19847B6E7E2
S315080045680320B4E70320B2E770B50446012380F8B0
S315080045789C320023C0F894324360C0F8A432D0F8BD
S31508004588BC3223B1D0F8B8325B680021984740237B
S3150800459800221146204601F0EFFF0126A4F86461BF
S315080045A84025C4F860512B4600228021204601F098
S315080045B8E3FFA6842562002070BD017400207047B9
S315080045C890F89C3280F89D32042380F89C320020AB
S315080045D8704790F89C32042B01D00020704790F859
S315080045E89D3280F89C32F8E708B590F89C32032B80
S315080045F801D0002008BDD0F8B832DB69002BF8D006
S315080046089847F6E700207047002070470020704753
S3150800461808B5012380F89C32D0F8B83213B15B6824
S3150800462801799847002008BD0346002002E00130BA
S31508004638C0B201331A78002AF9D1704708B54B88F1
S31508004648012B00D008BDC0F8A43200F068FBF9E7D2
S315080046580B7803704B7843708B78CA7843EA022341
S3150800466843800B794A7943EA022383808B79CA798E
S3150800467843EA0223C380704710B50446802101F037
S315080046888EFF0021204601F08AFF10BD30B583B0A1
S3150800469804460D460023ADF806304A88130A013B3E
S315080046A80E2B00F2BC80DFE803F0153044BABA9E38
S315080046B8ABBABABABABABABA0800D0F8B432DB6929
S315080046C823B10DF10601007C98470AE02946FFF751
S315080046D8D3FF18E0D0F8B4321B680DF10601007C48
S315080046E89847EA88002A00F0A380BDF80630002B10
S315080046F800F099809A4228BF1A46ADF80620014666
S31508004708204600F0EFFA03B030BD037C43B9D0F871
S31508004718B8329B6A0DF10600984702234370E0E712
S31508004728D0F8B832DB6A0DF10600984702234370C1
S31508004738D7E7D2B2052A52D8DFE802F003101D2AB5
S315080047483744D0F8B4325B6823B10DF10601007C12
S315080047589847C6E72946FFF78FFFD4E7D0F8B4325B
S315080047689B6823B10DF10601007C9847B9E72946ED
S31508004778FFF782FFC7E7D0F8B432DB6823B10DF13B
S315080047880601007C9847ACE72946FFF775FFBAE7A4
S31508004798D0F8B4321B6923B10DF10601007C98479D
S315080047A89FE72946FFF768FFADE7D0F8B4325B699B
S315080047B823B10DF10601007C984792E72946FFF7D1
S315080047C85BFFA0E7D0F8B4329B6923B10DF1060167
S315080047D8007C984785E72946FFF74EFF93E7294661
S315080047E8FFF74AFF8FE7037C33B9D0F8B8325B6B1B
S315080047F80DF10600984774E72946FFF73DFF82E75B
S31508004808037C43B9D0F8B8321B6B0DF106009847FC
S315080048180723437065E72946FFF72EFF73E72946FE
S31508004828FFF72AFF6FE729462046FFF725FF6AE7BD
S31508004838204600F074FA66E738B504468B88F3B95B
S31508004848CB88E3B94B887F2B19D803F07F0590F8F6
S315080048589C32032B0CD080F89E52294601F0AFFEF5
S31508004868204600F05CFA35B1022384F89C3209E048
S31508004878FFF702FF06E0012384F89C3202E020468F
S31508004888FFF7FAFE38BD000070B504460E468D7867
S315080048982D4B1D70012D0FD890F89C32022B0FD086
S315080048A8032B23D0FFF7E8FE274B19782046FFF796
S315080048B892FD0325284670BDFFF7DEFE0325F9E7B6
S315080048C88DB145602946FFF77DFD054620B131467D
S315080048D82046FFF7D1FEEDE7204600F020FA03232D
S315080048E884F89C32E6E700F01AFAE3E7CDB14168A6
S315080048F88D4225D0C9B2FFF76EFD134B1978616052
S315080049082046FFF75FFD0546B0B131462046FFF75A
S31508004918B3FE21792046FFF75EFD022384F89C3210
S31508004928C8E7022380F89C3245602946FFF753FDFD
S31508004938204600F0F4F9BDE7204600F0F0F9B9E79B
S3150800494800F0EDF90025B5E7BC06002408B5CB88C4
S31508004958012B0AD190F89C32022B09D9032B09D1CD
S315080049680122011D00F0BEF901E0FFF785FE08BD2A
S315080049785BB213B9FFF780FEF9E70146002341F851
S31508004988083F012200F0AEF9F1E708B590F89C3225
S31508004998013B022B12D8CB88022B0CD10123C3600A
S315080049A8D0F8A4320BB10323C360022200F10C012C
S315080049B800F098F908BDFFF75FFEFBE7FFF75CFE16
S315080049C8F8E708B590F89C32013B022B09D84B88C2
S315080049D8012B00D008BD0023C0F8A43200F09FF9C7
S315080049E8F8E7FFF749FEF5E738B50C7804F06004F0
S315080049F8202C06D0402C04D054B1FFF73DFE0024E5
S31508004A0804E0D0F8B8329B6898470446204638BD73
S31508004A184D78092D1DD8DFE805F012191C161C0853
S31508004A28051C0F0BFFF732FEF0E7FFF705FFEDE76A
S31508004A38FFF72AFF0446E9E7FFF788FFE6E7FFF7E7
S31508004A48A4FF2C46E2E7FFF7F9FDDFE7FFF7B9FF12
S31508004A58DCE7FFF711FED9E770B505460C460B7873
S31508004A6803F06003202B07D0402B05D023B1FFF7AE
S31508004A7803FE0026304670BD95F89C32013B022B92
S31508004A8818D82379012B0FD8D5F8B8329B68214650
S31508004A98284698470646E388002BEBD10028E9D133
S31508004AA8284600F03CF9E5E721462846FFF7E4FDE5
S31508004AB80026DFE721462846FFF7DEFD0026D9E768
S31508004AC8F8B506460D468B880C7804F06004202C49
S31508004AD808D0D9B2402C05D06CB12946FFF7CCFDD1
S31508004AE8002406E0D6F8B8329B6829463046984727
S31508004AF804462046F8BD6F78012F2FD0032F05D01E
S31508004B08002F57D02946FFF7B7FDF2E790F89C32F1
S31508004B18022B05D0032B12D02946FFF7ADFDE8E78F
S31508004B28002918BF802906D001F039FD80213046B2
S31508004B3801F035FDDDE72946FFF79EFDD9E76B88C5
S31508004B482BB9002918BF802901D0EB881BB130463C
S31508004B5800F0E5F8CDE701F022FDF8E790F89C3279
S31508004B68022B05D0032B12D02946FFF785FDC0E78F
S31508004B78002918BF802906D001F011FD802130468A
S31508004B8801F00DFDB5E72946FFF776FDB1E76B8815
S31508004B98002BAED111F07F0F09D1304600F0BFF8CF
S31508004BA8D6F8B8329B68294630469847A1E701F0F7
S31508004BB8FEFCF2E790F89C22022A06D0032A2AD09D
S31508004BC82946FFF759FD3C4693E7002918BF80296F
S31508004BD813D113F0800F15D101F07F0101EB810184
S31508004BE8890001F5A8710144043100230B600222EB
S31508004BF8304600F077F83C467BE72946FFF73CFD48
S31508004C083C4676E701F07F0101EB81018900103106
S31508004C1801440431E9E75BB2002B20DB01F00F02FF
S31508004C2802EB820200EB8202B2F864212AB3002B57
S31508004C3828DB01F07F0303EB83039C0004F5A874C3
S31508004C4834440434802918BF002924D1002323605A
S31508004C5802222146304600F045F83C4649E701F06D
S31508004C680F0202EB820200EB8202928C002ADED146
S31508004C782946FFF701FD3C463BE72946FFF7FCFCBA
S31508004C883C4636E701F07F0303EB83039C001034A8
S31508004C9834440434D6E7304601F030FC10B1012319
S31508004CA82360D5E700232360D2E7D0B170B50D4657
S31508004CB816460446FFF7B8FC431C5B009BB23380D4
S31508004CC82B7003236B70022307E0EA5401345A1C3D
S31508004CD8D2B20021A9540233DBB22278002AF4D1D1
S31508004CE870BD704708B513460222C0F8942283613E
S31508004CF8C3610A46002101F06AFC002008BD08B510
S31508004D0813460A46002101F062FC002008BD08B5D2
S31508004D1813460A46002101F062FC002008BD08B5C2
S31508004D280423C0F8943200231A46194601F04FFCAA
S31508004D38002008BD08B50523C0F8943200231A4692
S31508004D48194601F04CFC002008BD72B6704762B6D9
S31508004D587047000070B5174D2C6D24F040542C652B
S31508004D684FF0000C03E00CF1010C5FFA8CFCBCF167
S31508004D78110F1DD8104C14F81C5004EB4C04667817
S31508004D88AC1904FB00044FF4FA5EBEFBF4FE04FB00
S31508004D980EFEBEF5FA5FE6D1BEFBF4F40C80013CC4
S31508004DA8A4B2B4F5007FDED215701E70012000E0AB
S31508004DB8002070BD004402587C67000870B58CB0A6
S31508004DC80023ADF82E308DF82D308DF82C300BAB2E
S31508004DD80DF12D020DF12E014FF4FA70FFF7BAFF07
S31508004DE8002842D0234C244B23600025A560E560A3
S31508004DF8012626746574A574BDF82E306361A6610C
S31508004E089DF82D30E3619DF82C3023626662A66210
S31508004E18E66226636563A663E5632664042363641A
S31508004E28A564E36425656365A565E665256665661F
S31508004E38A3662046FCF758F8039504950596069642
S31508004E4840F2676307930893099503A92046FCF778
S31508004E5895F900963346022211462046FCF7D2F900
S31508004E682046FCF7EAF90CB070BDB821034800F0F3
S31508004E780DFEB7E7C006002400A00040306700080A
S31508004E8810B58AB0024640F2E173019300230293F3
S31508004E98039304910593069307930893522309935A
S31508004EA8012301A90E48FCF7E2F908B10AB010BDBA
S31508004EB801210B48FCF71AFA0028F7D100F0E2FBA3
S31508004EC800F1320401210648FCF714FB0028EDD04E
S31508004ED800F0E8FE00F0D6FBA042F3D9E6E700BFEB
S31508004EE8C006002430B58BB004460D4640210E484E
S31508004EF8FCF707FB10B900200BB030BD23466A46FD
S31508004F0840210948FCF704FA60B9009A40F2676339
S31508004F189A42F1D1019B002BEED19DF80C302B70EB
S31508004F280120E9E70020E7E7C006002408B5FFF7EF
S31508004F380CFF08BD10B500F04BFA00B910BD00F01B
S31508004F4859FEFBF781FD00F059FB00F045FA054BC1
S31508004F580340054A936000F03FFA4468FFF7F7FEF6
S31508004F68A047EBE780FFFF1F00ED00E070B50D4690
S31508004F78044606E015F8013B04F8013B00F092FEEA
S31508004F883246531E9EB2002AF4D170BD38B505467E
S31508004F98002401E00134E4B20E2C11D800F082FE98
S31508004FA804EB4403084A52F82330AB42F2D804EB20
S31508004FB8440102EB810252681344AB42EAD900E085
S31508004FC8FF24204638BD00BFF067000808B5C1F3BE
S31508004FD8090363B903688B4201D1012008E040F848
S31508004FE8041B4FF48062FFF7C1FF012000E0002090
S31508004FF808BD2DE9F04107460068FFF7C7FFFF28F7
S3150800500804D14FF000084046BDE8F081FCF788FA5D
S3150800501800264FF0010804E0E046B8F1000F1ED05C
S3150800502801361F2E1BD83C6804EB461407EB4615B9
S31508005038043500F037FE2A4621460120FCF736FBE0
S31508005048844650B903461F2BE7D8195DEA5CD2B2E5
S315080050589142E1D10133DBB2F5E74FF00008FCF7DE
S315080050688DFAD0E770B50D460E4B984212D0044615
S315080050780D4B994209D10B4E344626B1294620468E
S31508005088FFF7A4FF58B1304670BDFFF7B2FF20B14D
S315080050982646F2E7054E3446EFE70026EDE70026F2
S315080050A8F1E700BF6007002400000208640B00242B
S315080050B82DE9F04106460C4617461D46DFF870806E
S315080050C801EA08080368B3F1FF3F07D03368434588
S315080050D809D13368E41A3444043413E04146FFF727
S315080050E875FF00B3F2E741463046FFF7BBFF0646B1
S315080050F80028EED1002016E017F8013B04F8013B1A
S31508005108013D0FD000F0CEFD311D611AB1F5806F53
S31508005118F2D308F580613046FFF7A4FF064620B1AA
S31508005128041DE9E70120BDE8F0810020FBE700BF80
S3150800513800FCFFFF70B5144B00EB400253F82250F1
S3150800514803EB82035E6815F0030F02D116F0030F0E
S3150800515804D040F21E310D4800F098FC002405E002
S315080051682B68B3F1FF3F0CD104350134B4EB960F25
S3150800517805D214F0FF0FF3D100F094FDF0E70120F3
S3150800518870BD0020FCE700BFF0670008A0670008AC
S3150800519870B586B000230093884236D804460D4673
S315080051A80E2901D9002631E0FCF7BAF901E00134E5
S315080051B8E4B2AC4225D82046FFF7BCFF06460028CD
S315080051C8F5D100F06FFD134B04EB440203EB8201A3
S315080051D853F822204B68002B18BFB2F1FF3F11D0B5
S315080051E800230193202305934A7A02920B7A0393A4
S315080051F801230493694601A8FCF726FB0028D6D0A4
S3150800520800E00126FCF7BAF900E00026304606B0A9
S3150800521870BD00BFF06700084FF0FF33024A1360FD
S31508005228024A1360704700BF640B00246007002415
S3150800523870B50D460139144B1B1A994201D900203D
S3150800524870BD04461646FFF7A1FEFF2801D10020C7
S31508005258F6E728190138FFF799FEFF2812D00B4BF5
S3150800526823400B4A934206D02B4632462146094824
S31508005278FFF71EFFE4E72B46324621460648FFF7A6
S3150800528817FFDDE70020DBE7FFFF1F0800FCFFFF2D
S3150800529800000208640B00246007002470B54A1E43
S315080052A80F4B1B1A9A4205D9FF210E4600200128E2
S315080052B812D070BD05460C46FFF768FE06462C4414
S315080052C8601EFFF763FE0146FF2818BFFF2E01D0B0
S315080052D80120ECE70020EAE73046FFF759FFE8E740
S315080052E8FFFF1F0800B583B000230193134B1B6803
S315080052F8B3F1FF3F03D1012003B05DF804FB0F4A61
S315080053085368019391680B440193D1680B44019340
S3150800531811690B44019351690B44019391690B4434
S315080053280193D26913440193DA4301925B420193CC
S3150800533801AA04210248FFF77BFFDDE7600700247E
S31508005348980202080A4B1A68596811449A6811445F
S31508005358DA6811441A6911445A6911449A690A445F
S31508005368D3F89832D34201D10120704700207047FC
S315080053780000020808B50C4B1B68B3F1FF3F06D1BD
S315080053880A4B1B68B3F1FF3F07D1012008BD064841
S31508005398FFF72FFE0028F9D0F2E70448FFF729FEA1
S315080053A80028F3D00120F1E760070024640B0024E5
S315080053B8004870470000020808B5FFF72DFF08BD2A
S315080053C808B5FFF735FF08BD08B5FFF767FF08BD3D
S315080053D808B5FFF7B7FF08BD08B5FFF7E9FF08BD29
S315080053E808B5FFF77FFF00B908BDFFF7C3FFFBE75E
S315080053F8054BDB6913F0200F04D0034B5B6A037077
S3150800540801207047002070470048004010B5094B36
S31508005418986200F037F900F10A04064BDB6913F0C5
S31508005428800F05D100F03EFC00F02CF9A042F4D913
S3150800543810BD00BF0048004010B588B00D4C236861
S3150800544823F001032360002300934FF4614201927D
S315080054580293039304930C220592069307936946CD
S315080054682046FEF7F9F8236843F00103236008B0DD
S3150800547810BD00BF0048004070B506460D46812994
S3150800548804D82846FFF7C2FF00240BE08421074802
S3150800549800F0FCFAF5E700F005FC305DFFF7B6FF0B
S315080054A80134A4B2A542F6D870BD00BFA4680008A6
S315080054B870B5254B1C78BCB92448FFF799FF012815
S315080054C801D0204670BD214B1B78013BDBB2802BEF
S315080054D8F7D800F0D7F81E4B18601E4B00221A7032
S315080054E8194B01221A70ECE706460D46194B1B782C
