S01A000064656D6F70726F675F73746D3332683734332E737265638F
S3150802000000000824D90C0208ED0B0208EF0B0208BF
S31508020010F10B0208F30B0208F50B020800000000B8
S31508020020000000000000000000000000F70B0208B4
S31508020030F90B020800000000FB0B0208FD0B020880
S31508020040290D0208290D0208290D0208290D0208A0
S31508020050290D0208290D0208290D0208290D020890
S31508020060290D0208290D0208290D0208290D020880
S31508020070290D0208290D0208290D0208290D020870
S31508020080290D0208290D0208290D0208290D020860
S31508020090290D0208290D0208290D0208290D020850
S315080200A0290D0208290D0208290D0208290D020840
S315080200B0290D0208290D0208290D0208290D020830
S315080200C0290D0208290D0208290D0208290D020820
S315080200D0290D0208290D0208290D0208290D020810
S315080200E0290D0208290D020800000000290D020840
S315080200F0290D0208290D0208290D0208290D0208F0
S31508020100290D0208290D0208290D0208290D0208DF
S31508020110290D0208290D0208290D0208290D0208CF
S31508020120290D0208290D0208290D0208290D0208BF
S31508020130290D0208290D0208290D0208290D0208AF
S31508020140000000000000000000000000000000009F
S31508020150290D0208290D0208290D0208290D02088F
S31508020160290D0208290D0208290D0208290D02087F
S31508020170290D0208290D0208290D020800000000AF
S31508020180290D0208290D0208290D0208290D02085F
S31508020190290D0208290D0208290D0208290D02084F
S315080201A0290D0208290D0208290D0208290D02083F
S315080201B0290D0208290D0208290D0208290D02082F
S315080201C0290D0208290D0208290D0208290D02081F
S315080201D0290D0208290D0208290D0208290D02080F
S315080201E0290D0208290D0208290D0208290D0208FF
S315080201F0290D0208290D0208290D0208290D0208EF
S31508020200290D0208290D0208290D0208290D0208DE
S31508020210290D0208290D0208290D0208290D0208CE
S31508020220290D0208290D0208290D020800000000FE
S31508020230290D0208290D020800000000290D0208EE
S31508020240290D0208290D0208290D0208290D02089E
S31508020250290D0208290D0208290D0208290D02088E
S31508020260290D0208290D0208290D0208290D02087E
S31508020270290D0208290D0208290D020800000000AE
S31508020280290D0208290D0208290D0208000000009E
S3110802029000000000290D0208EE11AA5514
S3150802029C10B5054C237833B9044B13B10448AFF3A4
S315080202AC00800123237010BD1000002400000000FA
S315080202BCB43F020808B5034B1BB103490348AFF315
S315080202CC008008BD0000000014000024B43F020898
S315080202DC53B94AB9002908BF00281CBF4FF0FF3191
S315080202EC4FF0FF3000F06AB9ADF1080C6DE904CE97
S315080202FC00F006F8DDF804E0DDE9022304B07047E5
S3150802030C2DE9F047089D0C46002B4ED194468C4598
S3150802031C8646B2FA82F262D94AB1C2F120039140F8
S3150802032C20FA03F30CFA02FC194300FA02FE4FEA0E
S3150802033C1C471FFA8CF6B1FBF7F44FEA1E4307FB70
S3150802034C141143EA014304FB06F199420AD91CEB40
S3150802035C030304F1FF3080F01281994240F20F81B7
S3150802036C023C6344591A1FFA8EF3B1FBF7F007FBEA
S3150802037C101143EA014300FB06F69E420AD91CEB0E
S3150802038C030300F1FF3180F0FC809E4240F2F980B3
S3150802039C634402389B1B40EA044000211DB1D3403A
S315080203AC0022C5E90032BDE8F0878B4205D90DB1AA
S315080203BCC5E9000100210846F5E7B3FA83F10029DD
S315080203CC46D1A34202D39042C0F0F080861A64EB5F
S315080203DC03030120002DE6D0C5E90063E3E7002AF2
S315080203EC40F09080A1EB0C044FEA1C481FFA8CF7DC
S315080203FC0121B4FBF8F64FEA1E4308FB164443EAFE
S3150802040C044307FB06F0984208D91CEB030306F1D2
S3150802041CFF3402D2984200F2CD8026461C1A1FFAE5
S3150802042C8EF3B4FBF8F008FB104443EA044300FBD2
S3150802043C07F79F4208D91CEB030300F1FF3402D2DB
S3150802044C9F4200F2B0802046DB1B40EA0640A5E735
S3150802045CC1F120068B4022FA06F71F4320FA06FC46
S3150802046C04FA01F343EA0C03F44000FA01F8380CD7
S3150802047C4FEA1349B4FBF0FE1FFA87FC00FB1E4435
S3150802048C49EA04440EFB0CF9A14502FA01F20AD90F
S3150802049C3C190EF1FF3A80F08480A14540F2818026
S315080204ACAEF1020E3C44A4EB09041FFA83F9B4FB21
S315080204BCF0F300FB134449EA044403FB0CFCA44581
S315080204CC07D93C1903F1FF3067D2A44565D9023B1B
S315080204DC3C4443EA0E40A0FB0293A4EB0C049C4258
S315080204ECCE469C4651D34ED055B1B8EB0E0364EBAF
S315080204FC0C0404FA06F6CB401E43CC40C5E900644C
S3150802050C002150E7C2F1200320FA03F10CFA02FC8F
S3150802051C24FA03F394400C434FEA1C4800FA02FEF1
S3150802052C1FFA8CF7B3FBF8F008FB1031230C43EADD
S3150802053C014300FB07F1994208D91CEB030300F1AE
S3150802054CFF362CD299422AD9023863445B1AA4B2D2
S3150802055CB3FBF8F108FB113344EA034401FB07F336
S3150802056CA34208D91CEB040401F1FF3613D2A342A9
S3150802057C11D902396444E41A41EA004139E70446BE
S3150802058CF0E6084606E7C845AED2B9EB020E63EBAF
S3150802059C070C0138A8E73146EDE7034699E73046DA
S315080205ACD4E7D6467FE7634402384DE70646234628
S315080205BC08460FE7023E634430E700BF704700BFA8
S315080205CC08B500F07FF900F04DF900F0C9F808BD3E
S315080205DC08B500F051F900F03FF908BDBFF34F8F8B
S315080205EC0549CA6802F4E062044B1343CB60BFF3B5
S315080205FC4F8F00BFFDE700BF00ED00E00400FA05CF
S3150802060C4FF0000CBCF1110F28D870B506E00CF1AE
S3150802061C010C5FFA8CFCBCF1110F1DD8104C14F8A6
S3150802062C1C5004EB4C046678AC1904FB00044FF41A
S3150802063CFA5EBEFBF4FE04FB0EFEBEF5FA5FE6D1CD
S3150802064CBEFBF4F40C80013CA4B2B4F5007FDED2F6
S3150802065C15701E70012000E0002070BD0020704746
S3150802066C1840020808B50948094B03604FF4614360
S3150802067C436000238360C36003610C224261836179
S3150802068CC3610362836203F021FC08BD580100248E
S3150802069C0048004070B58CB00025ADF82E508DF888
S315080206AC2D508DF82C500BAB0DF12D020DF12E01A0
S315080206BC4FF4FA70FFF7A4FF204C214B2360A56078
S315080206CCE560012626746574A574BDF82E3063613F
S315080206DCA6619DF82D30E3619DF82C302362666283
S315080206ECA662E66226636563A663E563266404234B
S315080206FC6364A564E36425656365A565E565256696
S3150802070C6566A366204600F0CBFC03950495059610
S3150802071C069640F2676307930893099503A9204640
S3150802072C00F008FE0096334602221146204600F0D7
S3150802073C45FE204600F05DFE0CB070BDB8000024E4
S3150802074C00A0004008B5014600230122034803F025
S3150802075CCDFA08B1002008BD0120FCE75801002497
S3150802076C08B5FFF77FFFFFF795FF08BD08B5FFF73A
S3150802077C35FF000008B5214B1B78B3B92048FFF7A3
S3150802078CE1FF012800D008BD1D4B1B78013BDBB2EB
S3150802079C802BF8D800F097F81A4B1860174B0122E1
S315080207AC1A70194B00221A70EDE7174B1B78013396
S315080207BC13481844FFF7C6FF012813D1124A1378B7
S315080207CC0133DBB213700E4A12789342DBD10B4A11
S315080207DC002111700A4A5278FF2AD4D1022BD2D19F
S315080207ECFFF7C4FF00F06FF8064B1B686433984298
S315080207FCC9D9024B00221A70C5E700BFB6000024FD
S3150802080C34000024300000242C00002400B58DB0DE
S3150802081C4021104800F0FAFE10B90DB05DF804FB41
S3150802082C6B4602AA40210B4800F0FEFD0028F4D1C3
S3150802083C029A40F267639A42EFD1039B002BECD1E2
S3150802084C9DF814209DF80030FF2BE6D1022AE4D13C
S3150802085CFFF78CFFB800002408B5FFF78BFFFFF7EC
S3150802086CD5FF08BD08B500220121024800F0ECFFAD
S3150802087C08BD00BF0004025810B500F024F80E4B50
S3150802088C1B68C31AB3F5FA7F0CD304460B4B1B78B9
S3150802089C4BB90121094B19700A46094800F0D4FFD5
S315080208AC054B1C6010BD0022044B1A70012104482A
S315080208BC00F0CAFFF4E700BFF0010024EC010024A3
S315080208CC00040258704708B500F08CFA08BD0000FF
S315080208DC014A024B9A6070470000020800ED00E0DC
S315080208EC30B589B0002403940494059406940794AD
S315080208FC1A4BD3F8E02042F08002C3F8E020D3F872
S3150802090CE02002F080020092009AD3F8E02042F02E
S3150802091C0802C3F8E020D3F8E02002F0080201929C
S3150802092C019AD3F8E02042F00202C3F8E020D3F889
S3150802093CE03003F002030293029B094D2246012181
S3150802094C284600F081FF0123039304930594069429
S3150802095C03A9284600F068FE09B030BD00440258C7
S3150802096C0004025830B59FB04C2200210BA803F0A4
S3150802097CE0FA2022002103A803F0DBFA022000F099
S3150802098C69FF00230093354BDA6A22F00102DA6218
S3150802099CDB6A03F001030093314B9A6942F4404235
S315080209AC9A619B6903F440430093009B2C4B9B6909
S315080209BC13F4005FFAD02B4BD3F8F42042F0020260
S315080209CCC3F8F420D3F8F43003F002030193019B25
S315080209DC00230293224B9A6942F440429A619B691C
S315080209EC03F4404302931D4BDA6A42F00102DA62BF
S315080209FCDB6A03F001030293029B194B9B6913F4FE
S31508020A0C005FFAD001230B934FF4A0230C93022315
S31508020A1C14931593042416944FF4F07217921893A0
S31508020A2C19941A931B9400251C951D950BA800F076
S31508020A3C3BFF3F230393032304930595082306934D
S31508020A4C4023079308934FF4806209920A9321462E
S31508020A5C03A801F07DFB1FB030BD00BF000400588F
S31508020A6C004802580044025808B5FFF731FF00F057
S31508020A7C7FF9FFF777FFFFF733FFFFF7A1FDFFF7C4
S31508020A8CA7FDFCE77047000082B0074BD3F8F420A9
S31508020A9C42F00202C3F8F420D3F8F43003F002034E
S31508020AAC0193019B02B070470044025810B5B8B0C6
S31508020ABC0446002133913491359136913791C022EF
S31508020ACC02A803F036FA22681C4B9A4201D038B0B7
S31508020ADC10BD4FF400420023CDE9022302A801F00F
S31508020AECD3FD38BB164BD3F8EC2042F48072C3F80C
S31508020AFCEC20D3F8EC2002F480720092009AD3F818
S31508020B0CE02042F00202C3F8E020D3F8E03003F00A
S31508020B1C02030193019B4FF44073339302233493DC
S31508020B2C0023359336930923379333A9054800F0E6
S31508020B3C7BFDCCE7FFF7A6FFD4E700BF00A0004079
S31508020B4C004402580004025810B5B8B004460021F5
S31508020B5C33913491359136913791C02202A803F01C
S31508020B6CE8F922681B4B9A4201D038B010BD022212
S31508020B7C0023CDE9022302A801F086FD38BB164BE9
S31508020B8CD3F8E82042F48022C3F8E820D3F8E82008
S31508020B9C02F480220092009AD3F8E02042F008026E
S31508020BACC3F8E020D3F8E03003F008030193019B65
S31508020BBC4FF44073339302233493002335933693BD
S31508020BCC0723379333A9054800F02EFDCDE7FFF727
S31508020BDC59FFD4E70048004000440258000C02585A
S31508020BEC7047FEE7FEE7FEE7FEE770477047704779
S31508020BFC08B500F0EBF808BD294AD2F8883043F458
S31508020C0C7003C2F88830274B1B6803F00F03062BB8
S31508020C1C06D8244A136823F00F0343F0070313601C
S31508020C2C214B1A6842F001021A6000221A611968ED
S31508020C3C1E4A0A401A601B4B1B6813F0080F06D093
S31508020C4C184A136823F00F0343F007031360164B75
S31508020C5C00229A61DA611A62154999621549D962B2
S31508020C6C154919635A639963DA6319645A641968DC
S31508020C7C21F4802119601A66104B1A68104B13401E
S31508020C8CB3F1005F03D20F4B0122C3F808210E4BB6
S31508020C9C43F2D2021A60024B4FF000629A60704716
S31508020CAC00ED00E000200052004402587FEDF6EAFF
S31508020CBC000202020000FF01800201010010005C22
S31508020CCC0000FFFF0080005100400052DFF834D0CC
S31508020CDCFFF792FF002103E00B4B5B58435004319C
S31508020CEC0A480B4B42189A42F6D30A4A02E00023E8
S31508020CFC42F8043B084B9A42F9D303F023F9FFF75F
S31508020D0CB3FE704700000824844002080000002441
S31508020D1C1000002410000024F8010024FEE700004D
S31508020D2C104B1B780BB90120704710B504464FF4CB
S31508020D3C7A70B0FBF3F30C4A1068B0FBF3F000F0D0
S31508020D4CB1F868B90F2C01D901200AE00022214614
S31508020D5C4FF0FF3000F096F8044B1C60002000E0C0
S31508020D6C012010BD08000024040000240C000024F5
S31508020D7C10B5032000F074F801F0F0F80F498B69EE
S31508020D8CC3F303230E4AD35C03F01F03D8408B69C3
S31508020D9C03F00F03D35C03F01F0320FA03F3094A8B
S31508020DAC1360094B18600020FFF7BAFF10B1012433
S31508020DBC204610BD0446FFF767FEF9E700440258C1
S31508020DCC3C4002080000002404000024034B1B7854
S31508020DDC034A11680B441360704700BF08000024CD
S31508020DECF4010024014B1868704700BFF401002473
S31508020DFC014B1868000C70470010005C002804DBD5
S31508020E0C0901C9B2044B1954704700F00F000901C5
S31508020E1CC9B2024B1954704700E400E014ED00E025
S31508020E2C00B500F00700C0F1070CBCF1040F28BF8F
S31508020E3C4FF0040C031D062B0FD9C31E4FF0FF3EB1
S31508020E4C0EFA0CF021EA000199400EFA03FE22EA88
S31508020E5C0E0241EA02005DF804FB0023EEE70000ED
S31508020E6C0649CB6823F4E0631B041B0C000200F44E
S31508020E7CE0600343024A1A43CA60704700ED00E079
S31508020E8C0000FA0510B50446054BD868C0F30220D3
S31508020E9CFFF7C6FF01462046FFF7B0FF10BD00BF9D
S31508020EAC00ED00E00138B0F1807F0BD24FF0E02361
S31508020EBC5861054AF02182F823100020986107220E
S31508020ECC1A6170470120704700ED00E030B4416B9F
S31508020EDC0468D4F884306F4A134043EA8103C4F891
S31508020EEC84300468D4F8843023F47F03856B43EA90
S31508020EFC0543C4F88430836B0B440468D4F8881011
S31508020F0C114041EA8301C4F888100468D4F88810A1
S31508020F1C21F4FE01C56B41EA0541C4F88810C16B80
S31508020F2C03EB41030468D4F8A010114041EA83018B
S31508020F3CC4F8A0100468D4F8A01021F4FE01056CBC
S31508020F4C41EA0541C4F8A010016C446C04FB013358
S31508020F5C0468D4F8B010114041EA8301C4F8B01001
S31508020F6C0468D4F8B01021F4FE01856C41EA0541F7
S31508020F7CC4F8B010816CC46C04FB01330468D4F851
S31508020F8CAC10114041EA8301C4F8AC10016D446DF2
S31508020F9C04FB01330468D4F8F010114041EA8301CA
S31508020FACC4F8F0100468D4F8F01021F47C11856D9D
S31508020FBC41EA0541C4F8F010816D03EB410304685C
S31508020FCCD4F8C0100A4042EA8303C4F8C030026857
S31508020FDCD2F8C03023F47C13C16D43EA0143C2F83C
S31508020FECC0300268D2F8C03023F07C53016E43EA53
S31508020FFC0163C2F8C030436B274A1A449200C26690
S3150802100C836B02EB83030367C16B03EBC103436771
S3150802101C016C446C04FB01F103EB81038367816C5D
S3150802102CC46C04FB01F103EB8103C367016D446DC8
S3150802103C04FB01F103EB8103C0F88030816D03EBED
S3150802104CC103C0F88430816EC46D01FB04FC03EB4A
S3150802105C8C03C0F88830046E04FB01F103EB8103A0
S3150802106CC0F890300D498B420DD9D0F89C3043F01C
S3150802107C2003C0F89C30032380F89830012007E03F
S3150802108C002342F8043BD0F890309342F8D800205B
S3150802109C30BC70470300FFFF002B0010FCD3004046
S315080210AC30B595B004464C22A04901A802F06EFF51
S315080210BC002C00F0388123689D4A934220D094F87C
S315080210CC98300BB32268936923F010039361FFF7E8
S315080210DC89FE054623689A6912F0080F1AD0FFF79B
S315080210EC81FE431B0A2BF5D9D4F89C3043F0010335
S315080210FCC4F89C30032384F89830012015B030BD0F
S3150802110C03F580736360DAE784F899302046FFF7B3
S3150802111CCDFCD7E79A6942F001029A61FFF762FEA3
S3150802112C054623689A6912F0010F0FD1FFF75AFE8A
S3150802113C401B0A28F5D9D4F89C3043F00103C4F8AD
S3150802114C9C30032384F898300120D7E79A6942F039
S3150802115C02029A61237C012B40D02268936943F0E0
S3150802116C40039361637C012B3ED02268936923F476
S3150802117C80439361A37C012B3CD02268936943F488
S3150802118C805393612268936923F44073A1680B43D5
S3150802119C93612268936923F0A40393612268136905
S315080211AC23F010031361E368012B29D0002B2CD0F2
S315080211BC022B00F09B802268936943F080039361AB
S315080211CC2268136943F010031361E368032B1CD1DD
S315080211DC2268936943F02003936116E022689369A7
S315080211EC23F040039361BDE72268936943F4804375
S315080211FC9361BFE72268936923F480539361C1E72D
S3150802120C2268936943F004039361A3695A1EE3693E
S3150802121C013B1B0243EA4263226A013A134362699F
S3150802122C013A216843EA0243CB61A368B3F5407FCE
S3150802123C62D0236E33B12268D2F8C030616E0B438A
S3150802124CC2F8C030E36D226ED3420DD02168D1F8B4
S3150802125CC83023F00703A26E14A800EB820252F8D8
S3150802126C4C2C1343C1F8C830236C6BB12168D1F8E6
S3150802127CBC3023F00703626C14A800EB820252F806
S3150802128C4C2C1343C1F8BC30A36C73B12168D1F84A
S3150802129CBC3023F07003E26C14A800EB820252F8FD
S315080212AC4C2C43EA0213C1F8BC30236D73B1216886
S315080212BCD1F8BC3023F4E063626D14A800EB820209
S315080212CC52F84C2C43EA0223C1F8BC302268184B5C
S315080212DC9A4222D00023C4F89430C4F89C300123D5
S315080212EC84F898302046FFF7F1FD07E722689369E0
S315080212FC43F02003936188E7A36A013BE26A013A49
S3150802130C43EA0223226B013A43EA0213626A013A5E
S3150802131C216843EA0243CB608BE76268936823F041
S3150802132C03039360D6E70120E8E600BFCC3F020828
S3150802133C00A0004090F89830013BDBB2012B07D98C
S3150802134CD0F89C3043F00203C0F89C300120704759
S3150802135CCB680A68D2B9072B0ED08A68DB0643EA31
S3150802136C82730A6943EA02434A691343C26E49689D
S3150802137C42F82130002070470A69CB691B0243EAFE
S3150802138C02438A69134343F06053EFE710B40A69C0
S3150802139C42EA4372072B0FD04B698C6843EA847373
S315080213AC006F496800EBC10C40F83120CCF80430C8
S315080213BC00205DF8044B70478B69F1E790F898C0EA
S315080213CC5FFA8CFCBCF1010F07D0D0F89C3043F0C5
S315080213DC0403C0F89C3001207047920042EA0112BD
S315080213EC42EA43030168009A1A43C1F88020002096
S315080213FC704790F89830DBB2012B07D0D0F89C30A6
S3150802140C43F00403C0F89C3001207047022380F88D
S3150802141C98300268936923F0010393610023C0F89C
S3150802142C9C3018467047000090F898C05FFA8CFCFE
S3150802143CBCF1020F40F0DF8070B540290CD041296F
S3150802144C3DD0046D8C426DD8D0F89C3043F0200305
S3150802145CC0F89C300120C1E00468D4F8A05015F4F9
S3150802146CFE0F0CD0D4F8A45015F07F0F0FD1D0F87C
S3150802147C9C3043F48073C0F89C300120AEE0D0F85F
S3150802148C9C3043F02003C0F89C300120A6E0D4F827
S3150802149CA450C5F3006615F0807F04D0D4F8A0607A
S315080214ACF60F00D10026D4F8A440C4F3052426442A
S315080214BC456F446C06FB04F405EB840E39E00468AC
S315080214CCD4F8B05015F4FE0F0CD0D4F8B45015F06D
S315080214DC7F0F0FD1D0F89C3043F48073C0F89C3040
S315080214EC01207BE0D0F89C3043F02003C0F89C30F6
S315080214FC012073E0D4F8B450C5F3006615F0807F6A
S3150802150C04D0D4F8B060F60F00D10026D4F8B44053
S3150802151CC4F305242644856FC46C06FB04F405EB58
S3150802152C840E06E0C56F446D01FB04F405EB840ECC
S3150802153C0026DEF8004004F08044546064BBDEF8F2
S3150802154C0040C4F38A441460DEF8004004F00054E8
S3150802155C9460DEF8004004F000441461BEF80440BE
S3150802156CD461BEF8064004F00F04D460DEF80440D9
S3150802157C04F480145461DEF8044004F400149461F3
S3150802158C9EF8074004F07F041462DEF80440E40F68
S3150802159C54624FF0000C0CE0DEF8004024F0604474
S315080215AC1460D1E70EEB0C04247A03F80C400CF108
S315080215BC010CD468144D2C5D6445F3D8402909D026
S315080215CC41290CD01F290ED8026801238B40C2F878
S315080215DC983002E00368C3F8A860002070BD03685F
S315080215ECC3F8B860F9E701F01F01026801238B40C2
S315080215FCC2F89C30F1E7D0F89C3043F00803C0F8E7
S3150802160C9C300120704700BF4C400208402905D087
S3150802161C0368D3F8B40000F07F0070470368D3F868
S3150802162CA40000F07F007047F0B583B000236BE08E
S3150802163C85685E000324B44025EA0405CC68B440E8
S3150802164C2C438460456825EA0C054C68C4F30014DF
S3150802165C9C402C43446069E0DD08083550F8254067
S3150802166C03F0070C4FEA8C0C4FF00F0E0EFA0CFE19
S3150802167C24EA0E0E0C6904FA0CF444EA0E0440F839
S3150802168C25406BE0092400E0002404FA0EF42C43EE
S3150802169C0CF1020C694D45F82C404FF0B044256804
S315080216ACD44325EA02064F6817F4801F01D042EA92
S315080216BC05064FF0B0452E606D6804EA05064F68BC
S315080216CC17F4001F01D042EA05064FF0B0456E60CA
S315080216DCD5F8845004EA05064F6817F4003F01D082
S315080216EC42EA05064FF0B045C5F88460D5F8805035
S315080216FC2C404E6816F4803F01D042EA05044FF09E
S3150802170CB042C2F8804001330A6832FA03F400F098
S3150802171C92804FF0010C0CFA03FC1CEA0202F2D07E
S3150802172C4C6804F00304013C012C81D94C6804F082
S3150802173C0304032C0CD0C4685D004FF0030C0CFA9E
S3150802174C05FC24EA0C0C8C68AC4044EA0C04C46014
S3150802175C4C6804F00304022C3FF47EAF04684FEA8B
S3150802176C430E4FF0030C0CFA0EFC24EA0C0C4C68D4
S3150802177C04F0030404FA0EF444EA0C0404604C68FC
S3150802178C14F4403FBFD02E4CD4F8F45045F0020561
S3150802179CC4F8F450D4F8F44004F002040194019C01
S315080217AC4FEA930C0CF10205244C54F8255003F01D
S315080217BC030E4FEA8E0E0F2404FA0EF425EA0405DC
S315080217CC204CA0423FF460AF04F58064A04222D0BC
S315080217DC04F58064A04220D004F58064A0421ED091
S315080217EC04F58064A0421CD004F58064A0421AD089
S315080217FC04F58064A04218D004F58064A04216D081
S3150802180C04F58064A04214D004F58064A0423FF427
S3150802181C39AF0A2439E7012437E7022435E70324CA
S3150802182C33E7042431E705242FE706242DE707249A
S3150802183C2BE7082429E703B0F0BD00BF00040058C3
S3150802184C00440258000002580AB181617047090423
S3150802185C81617047134BDB6813F0040F07D1114BE8
S3150802186CDB6803F0070383421AD00120704710B5D0
S3150802187C0C4AD36823F007030343D360FFF7B2FA83
S3150802188C0446084B5B6813F4005F07D1FFF7AAFA04
S3150802189C001BB0F57A7FF4D9012000E0002010BDB8
S315080218AC0020704700480258002800F0398338B5E2
S315080218BC0446036813F0010F25D0944A136903F002
S315080218CC3803926A102B15D0182B0FD06368B3F510
S315080218DC803F3FD0002B53D18C4B1A6822F48032AE
S315080218EC1A601A6822F480221A6038E002F003029F
S315080218FC022AEBD1854B1B6813F4003F03D06368AD
S3150802190C002B00F00F83236813F0020F00F0A1805E
S3150802191C7E4A1369926A13F038035AD0182B55D09B
S3150802192CE368002B00F0DE8078490A6822F0190277
S3150802193C13430B60FFF756FA0546744B1B6813F0F4
S3150802194C040F40F0AD80FFF74DFA401B0228F4D97C
S3150802195C0320EEE26D4A136843F48033136063681E
S3150802196C2BB3FFF73FFA0546684B1B6813F4003F87
S3150802197CC9D1FFF737FA401B6428F5D90320D8E2F8
S3150802198CB3F5A02F09D0614B1A6822F480321A607B
S3150802199C1A6822F480221A60E1E75C4B1A6842F450
S315080219AC80221A601A6842F480321A60D7E7FFF767
S315080219BC19FA0546554B1B6813F4003FA3D0FFF7DB
S315080219CC11FA401B6428F5D90320B2E212F0030F70
S315080219DCA6D14E4B1B6813F0040F03D0E368002BF9
S315080219EC00F0A282494A136823F01903E1680B43F3
S315080219FC1360FFF7F7F90546444B1B6813F0040FFF
S31508021A0C06D1FFF7EFF9401B0228F5D9032090E21D
S31508021A1CFFF7EEF941F20303984212D82269402ADB
S31508021A2C07D03A494B6823F47C3343EA02334B60BA
S31508021A3C0FE0364A536823F47C3343F4003353607D
S31508021A4C07E0324A536823F0FE43216943EA0163ED
S31508021A5C5360236813F0100F00F088802B4A136921
S31508021A6C03F03803926A082B56D0182B50D0E36928
S31508021A7C002B00F0B880254A136843F080031360E4
S31508021A8CFFF7B0F90546214B1B6813F4807F40F02B
S31508021A9C8880FFF7A7F9401B0228F4D9032048E2ED
S31508021AACFFF7A6F941F20303984212D82269402A93
S31508021ABC07D016494B6823F47C3343EA02334B604E
S31508021ACCC7E7124A536823F47C3343F40033536052
S31508021ADCBFE70E4A536823F0FE43216943EA0163C2
S31508021AEC5360B6E7094A136823F001031360FFF73C
S31508021AFC79F90546054B1B6813F0040FA9D0FFF7B5
S31508021B0C71F9401B0228F5D9032012E20044025847
S31508021B1C02F00302012AAAD1A14B1B6813F4807F97
S31508021B2C03D0E369802B40F00182FFF761F941F299
S31508021B3C0303984212D8226A202A07D098494B687E
S31508021B4C23F0F84343EA82634B600FE0944A5368E6
S31508021B5C23F0F84343F08043536007E0904AD36876
S31508021B6C23F07C53216A43EA0163D360236813F09A
S31508021B7C080F60D06369002B49D0894A536F43F02A
S31508021B8C01035367FFF72EF90546854B5B6F13F076
S31508021B9C020F50D1FFF726F9401B0228F5D903206C
S31508021BACC7E1FFF725F941F20303984212D8226AD4
S31508021BBC202A07D07A494B6823F0F84343EA826312
S31508021BCC4B60D3E7764A536823F0F84343F08043D5
S31508021BDC5360CBE7724AD36823F07C53216A43EAF3
S31508021BEC0163D360C2E76E4A136823F0800313605D
S31508021BFCFFF7F8F805466A4B1B6813F4807FB5D0D5
S31508021C0CFFF7F0F8401B0228F5D9032091E1644A44
S31508021C1C536F23F001035367FFF7E4F80546604B4D
S31508021C2C5B6F13F0020F06D0FFF7DCF8401B022895
S31508021C3CF5D903207DE1236813F0200F29D0A36977
S31508021C4C9BB1574A136843F480531360FFF7CAF8DB
S31508021C5C0546534B1B6813F4005F1AD1FFF7C2F8FB
S31508021C6C401B0228F5D9032063E14D4A136823F475
S31508021C7C80531360FFF7B6F80546494B1B6813F4F5
S31508021C8C005F06D0FFF7AEF8401B0228F5D90320F1
S31508021C9C4FE1236813F0040F21D1636A002B00F07D
S31508021CAC47813F4A126902F03802182A00F0EE8080
S31508021CBC022B79D03A4A136823F080731360FFF724
S31508021CCC91F80446364B1B6813F0007F00F0DC8053
S31508021CDCFFF788F8001B0228F4D9032029E1314AB8
S31508021CEC136843F480731360FFF77CF805462D4B93
S31508021CFC1B6813F4807F06D1FFF774F8401B64281F
S31508021D0CF5D9032015E1A368012B0AD00BBB244B8A
S31508021D1C1A6F22F001021A671A6F22F004021A6766
S31508021D2C04E01F4A136F43F001031367A36833B326
S31508021D3CFFF758F805461A4B1B6F13F0020FACD176
S31508021D4CFFF750F8401B41F288339842F3D9032027
S31508021D5CEFE0052B09D0124B1A6F22F001021A6713
S31508021D6C1A6F22F004021A67E0E70D4B1A6F42F05B
S31508021D7C04021A671A6F42F001021A67D6E7FFF7CE
S31508021D8C31F80546064B1B6F13F0020F85D0FFF789
S31508021D9C29F8401B41F288339842F3D90320C8E04C
S31508021DAC0044025800480258694A136823F08073A3
S31508021DBC1360FFF717F80546654B1B6813F0007F8F
S31508021DCC06D0FFF70FF8401B0228F5D90320B0E01E
S31508021DDC5F4B996A5F4A0A40A16AE06A41EA0011B6
S31508021DEC0A439A62226B013AC2F30802616B013901
S31508021DFC490289B20A43A16B0139090401F4FE01AD
S31508021E0C0A43E16B0139090601F0FE410A431A63DA
S31508021E1CDA6A22F00102DA62596B4F4A0A40A16C5D
S31508021E2C42EAC1025A63DA6A22F00C02216C0A43AC
S31508021E3CDA62DA6A22F00202616C0A43DA62DA6A56
S31508021E4C42F48032DA62DA6A42F40032DA62DA6A26
S31508021E5C42F48022DA62DA6A42F00102DA621A681B
S31508021E6C42F080721A60FEF7BDFF0446384B1B68B7
S31508021E7C13F0007F06D1FEF7B5FF001B0228F5D931
S31508021E8C032056E0002054E0002052E0304A916AC2
S31508021E9C106B012B4ED001F00303A26A93424BD16D
S31508021EACC1F30511E36A994248D1C0F30802236BC0
S31508021EBC013B9A4244D1C0F34622636B013B9A42D8
S31508021ECC40D1C0F30642A36B013B9A423CD1C0F304
S31508021EDC0660E36B013B984238D11D4B5B6BC3F32F
S31508021EECCC03A26C9A4201D1002022E0184AD36A8A
S31508021EFC23F00103D362FEF775FF0546FEF772FF60
S31508021F0CA842FBD0124A516B134B0B40A16C43EA05
S31508021F1CC1035363D36A43F00103D362002008E07A
S31508021F2C01207047012004E0012002E0012000E0B4
S31508021F3C002038BD0120FCE70120FAE70120F8E76A
S31508021F4C0120F6E70120F4E70120F2E70120F0E789
S31508021F5C004402580CFCFFFF0700FFFF744B1B6979
S31508021F6C03F03803102B00F0DE80182B0FD00BB1C0
S31508021F7C704870476E4B1B6813F0200F00F0D58023
S31508021F8C6B4B1B68C3F3C1036B48D840704710B43C
S31508021F9C674B9A6A02F003029C6AC4F30510D96A63
S31508021FAC01F001015B6BC3F3CC0301FB03F307EEF0
S31508021FBC903AF8EE677A14F47C7F00F09480012A42
S31508021FCC66D0022A00F09280E2B107EE100AF8EE09
S31508021FDC476A9FED5A6A86EE267A554B1B6BC3F3F4
S31508021FEC080306EE903AF8EE666A9FED556A67EEB6
S31508021FFC867A76EEA77AF7EE006A77EEA67A27EE57
S3150802200C277A61E04A4B1B6813F0200F23D0484904
S3150802201C0A68C2F3C102484BD34007EE103AF8EEEF
S3150802202C476A07EE100AB8EE476A86EE867A0B6B93
S3150802203CC3F3080306EE903AF8EE666A9FED406A19
S3150802204C67EE867A76EEA77AF7EE006A77EEA67AC6
S3150802205C27EE277A38E007EE100AF8EE476A9FED64
S3150802206C396A86EE267A324B1B6BC3F3080306EEE5
S3150802207C903AF8EE666A9FED326A67EE867A76EEE3
S3150802208CA77AF7EE006A77EEA67A27EE277A1BE08E
S3150802209C07EE100AF8EE476A9FED286A86EE267A4C
S315080220AC234B1B6BC3F3080306EE903AF8EE666AEB
S315080220BC9FED236A67EE867A76EEA77AF7EE006AC2
S315080220CC77EEA67A27EE277A194B1B6BC3F34623B0
S315080220DC013307EE903AF8EE677AC7EE276AFCEEFA
S315080220ECE67A17EE900A5DF8044B704707EE100A6B
S315080220FCF8EE476A9FED146A86EE267A0C4B1B6B32
S3150802210CC3F3080306EE903AF8EE666A9FED0C6A7C
S3150802211C67EE867A76EEA77AF7EE006A77EEA67AF5
S3150802212C27EE277AD0E7094870470348704700BF5D
S3150802213C0044025800093D000090D0030024744A5A
S3150802214C000000390024744C0024F44A00127A0068
S3150802215C002800F0328170B50D4604469B4B1B686D
S3150802216C03F00F038B420BD2984A136823F00F0322
S3150802217C0B431360136803F00F038B4240F01F8165
S3150802218C236813F0040F0CD02269914B9B6903F058
S3150802219C70039A4205D98E498B6923F070031A4348
S315080221AC8A61236813F0080F0CD06269884BDB69C5
S315080221BC03F070039A4205D98549CB6923F070035B
S315080221CC1A43CA61236813F0100F0CD0A269804B0C
S315080221DCDB6903F4E0639A4205D97D49CB6923F49A
S315080221ECE0631A43CA61236813F0200F0CD0E26924
S315080221FC774B1B6A03F070039A4205D974490B6A2A
S3150802220C23F070031A430A62236813F0020F0CD0E8
S3150802221CE2686F4B9B6903F00F039A4205D96C4926
S3150802222C8B6923F00F031A438A61236813F0010F93
S3150802223C41D0674A936923F47063A1680B4393618F
S3150802224C6368022B0AD0032B27D0012B2CD0604AA9
S3150802225C126812F0040F06D10120ADE0126812F4CE
S3150802226C003F00F0AE805A490A6922F0070213436E
S3150802227C0B61FEF7B7FD0646554B1B6903F038038F
S3150802228C6268B3EBC20F16D0FEF7ACFD801B41F2A7
S3150802229C88339842F0D903208EE04D4A126812F020
S315080222AC007FE0D1012087E0494A126812F4807F48
S315080222BCD9D1012080E0236813F0020F0CD0E26812
S315080222CC434B9B6903F00F039A4205D240498B692B
S315080222DC23F00F031A438A613C4B1B6803F00F0366
S315080222ECAB420AD9394A136823F00F032B431360FE
S315080222FC136803F00F03AB4265D1236813F0040F7E
S3150802230C0CD02269324B9B6903F070039A4205D2B0
S3150802231C2F498B6923F070031A438A61236813F0D9
S3150802232C080F0CD062692A4BDB6903F070039A42D8
S3150802233C05D22749CB6923F070031A43CA6123686D
S3150802234C13F0100F0CD0A269214BDB6903F4E0637E
S3150802235C9A4205D21E49CB6923F4E0631A43CA6131
S3150802236C236813F0200F0CD0E269194B1B6A03F091
S3150802237C70039A4205D216490B6A23F070031A4364
S3150802238C0A62FFF7EBFD12498B69C3F30323114A61
S3150802239CD35C03F01F03D8408B6903F00F03D35C9D
S315080223AC03F01F0320FA03F30B4A13600B4B186056
S315080223BC0B4B1868FEF7B4FC70BD01207047012060
S315080223CCFAE70120F8E70120F6E700BF00200052E1
S315080223DC004402583C400208000000240400002471
S315080223EC0C00002408B5FFF7B9FD0B4A9369C3F331
S315080223FC03230A49CB5C03F01F0320FA03F3926901
S3150802240C02F00F02885C00F01F0023FA00F0044A5F
S3150802241C1060044A136008BD004402583C40020886
S3150802242C000000240400002408B5FFF7DBFF054B67
S3150802243CDB69C3F30213044AD35C03F01F03D840C7
S3150802244C08BD00BF004402583C40020808B5FFF715
S3150802245CC9FF054BDB69C3F30223044AD35C03F0B9
S3150802246C1F03D84008BD00BF004402583C4002086E
S3150802247C404B9B6A03F00303032B79D070B50546D0
S3150802248C0E463C4A136823F080631360FEF7AAFCD7
S3150802249C0446384B1B6813F0006F06D0FEF7A2FCF5
S315080224AC031B022BF5D9032070BD324B9A6A22F410
S315080224BC7C32296842EA01329A626A68013AC2F3A4
S315080224CC0802A9680139490289B20A43E96801393D
S315080224DC090401F4FE010A4329690139090601F0C6
S315080224ECFE410A439A63DA6A22F0C00269690A4310
S315080224FCDA62DA6A22F02002A9690A43DA62DA6A2D
S3150802250C22F01002DA62D96B1B4A0A40E96942EADE
S3150802251CC102DA63DA6A42F01002DA62C6B91A46FC
S3150802252CDB6A43F40023D362124A136843F08063CE
S3150802253C1360FEF757FC04460E4B1B6813F0006F2C
S3150802254C14D1FEF74FFC001B0228F5D90320ABE782
S3150802255C012E05D0074AD36A43F40013D362E3E784
S3150802256C044AD36A43F48013D362DDE700209BE75F
S3150802257C01207047004402580700FFFF404B9B6A34
S3150802258C03F00303032B79D070B505460E463C4A75
S3150802259C136823F080531360FEF724FC0446384B69
S315080225AC1B6813F0005F06D0FEF71CFC031B022BFC
S315080225BCF5D9032070BD324B9A6A22F07C722968CF
S315080225CC42EA01529A626A68013AC2F30802A96897
S315080225DC0139490289B20A43E9680139090401F445
S315080225ECFE010A4329690139090601F0FE410A432B
S315080225FC1A64DA6A22F4406269690A43DA62DA6AA6
S3150802260C22F40072A9690A43DA62DA6A22F480723F
S3150802261CDA62596C1B4A0A40E96942EAC1025A64EF
S3150802262CDA6A42F48072DA62C6B91A46DB6A43F48B
S3150802263C8003D362124A136843F080531360FEF781
S3150802264CD1FB04460E4B1B6813F0005F14D1FEF740
S3150802265CC9FB001B0228F5D90320ABE7012E05D0CE
S3150802266C074AD36A43F08073D362E3E7044AD36A10
S3150802267C43F40003D362DDE700209BE70120704791
S3150802268C004402580700FFFFF8B50446036813F026
S3150802269C006F30D0836EB3F5001F26D00ED8EBB17F
S315080226ACB3F5801F07D102210830FFF7E1FE054674
S315080226BC45B12E4621E0012635461EE0B3F5401FEC
S315080226CC09D10025984A136D23F44013A16E0B43C6
S315080226DC1365002611E0012635460EE0924AD36AA6
S315080226EC43F40033D3620025ECE702212830FFF7C6
S315080226FC45FF0546DCE700263546236813F4807F3A
S3150802270C14D0A36D042B32D8DFE803F003232A086E
S3150802271C0800854AD36A43F40033D36255BB824A0E
S3150802272C136D23F00703A16D0B431365236813F48A
S3150802273C007F31D0E36D802B4CD020D8002B43D0B0
S3150802274C402B19D1002104F10800FFF791FE05462A
S3150802275C1AE0002104F10800FFF78AFE0546DDE7B8
S3150802276C002104F12800FFF709FF0546D6E70126E2
S3150802277C3546DBE72E46D9E7012635460CE0C02B53
S3150802278C02D0B3F5807F1CD15DBB674A136D23F467
S3150802279CE073E16D0B431365236813F4806F46D01F
S315080227ACD4F8A830B3F5800F39D01FD88BB3B3F54C
S315080227BC001F18D1002104F10800FFF759FE05463F
S315080227CC1AE001263546E7E7574AD36A43F400333B
S315080227DCD362D9E7002104F12800FFF7CFFE05469C
S315080227ECD2E72E46D8E70126354620E0B3F5C00FC8
S315080227FC02D0B3F5000F09D1C5B94B4A936D23F430
S3150802280C6003D4F8A8100B43936510E001263546ED
S3150802281C0DE0454AD36A43F40033D362ECE7002150
S3150802282C04F12800FFF7AAFE0546E5E72E462368BB
S3150802283C13F4006F24D0D4F8AC30B3F1007F42D035
S3150802284C0ED8002B39D0B3F1807F06D1002104F1C2
S3150802285C0800FFF70DFE054608E0012635460FE08F
S3150802286CB3F1407F02D0B3F1806F23D1002D31D161
S3150802287C2D4A936D23F0E063D4F8AC100B439365A1
S3150802288C236813F0007F2ED0E36C202B40D026D879
S3150802289C33B1102B20D1244AD36A43F40033D362C2
S315080228AC002D3CD1204AD36C23F03003E16C0B4348
S315080228BCD36418E001263546E2E71B4AD36A43F489
S315080228CC0033D362D2E7002104F12800FFF756FE43
S315080228DC0546CBE72E46D3E70126354603E0302BD1
S315080228ECDED001263546236813F4805F2DD0236E7D
S315080228FCB3F5005F4FD019D8002B46D0B3F5805FDD
S3150802290C0FD1002104F10800FFF7B2FD054613E0CA
S3150802291C022104F10800FFF7ABFD0546C0E72E4677
S3150802292CE1E70126354610E000440258B3F5405F4C
S3150802293C02D0B3F5804F25D1002D33D1774A136DCA
S3150802294C23F4E043216E0B431365236813F4005FEB
S3150802295C38D0636EB3F5003F53D028D843B1B3F5DC
S3150802296C803F21D1012104F10800FFF781FD0546BC
S3150802297C002D4DD1694A136D23F4E023616E0B4386
S3150802298C13651FE001263546DFE7644AD36A43F42A
S3150802299C0033D362D0E7002104F12800FFF7EEFDDD
S315080229AC0546C9E72E46D0E7012635460AE0B3F5B1
S315080229BC802FDDD0B3F5A02FDAD0B3F5403FD7D0B0
S315080229CC01263546236813F4804F31D0D4F8B0303B
S315080229DCB3F1005F45D020D843B1B3F1805F19D16A
S315080229EC012104F10800FFF743FD0546002D3FD1EE
S315080229FC4A4A936D23F0E043D4F8B0100B4393651F
S31508022A0C16E0012104F12800FFF7B8FD0546AFE7E9
S31508022A1C2E46D7E7012635460AE0B3F1804FE5D0B4
S31508022A2CB3F1A04FE2D0B3F1405FDFD001263546B1
S31508022A3C236813F4004F09D0236FB3F1805F19D0C2
S31508022A4CB3F1005F24D0D3B101263546236813F0BF
S31508022A5C807F33D0A36C032B5BD8DFE803F02722E5
S31508022A6C5327012104F12800FFF788FD0546BDE727
S31508022A7C2E46DDE7294AD36A43F40033D36275B985
S31508022A8C264A136D23F04053216F0B431365DDE77A
S31508022A9C012104F10800FFF7EBFC0546EFE72E4689
S31508022AACD4E71E4AD36A43F40033D362A5BB1B4A46
S31508022ABCD36C23F00303A16C0B43D364236813F47E
S31508022ACC800F2DD1236813F0010F00F0A580E36F58
S31508022ADC282B00F29F80DFE803F08D9D9D9D9D9D1E
S31508022AEC9D9D879D9D9D9D9D9D9D969D9D9D9D9D17
S31508022AFC9D9D8D9D9D9D9D9D9D9D8D9D9D9D9D9D0A
S31508022B0C9D9D8D00022104F10800FFF7B1FC0546D4
S31508022B1CCCE701263546D1E72E46CFE700440258C4
S31508022B2C914A136843F480731360FEF75BF9074600
S31508022B3C8D4B1B6813F4807F05D1FEF753F9C01B26
S31508022B4C6428F5D90325002D4AD1884B1B6FD4F876
S31508022B5CB420534013F4407F0CD0844B1A6F22F4E2
S31508022B6C4072196F41F480311967196F21F480315B
S31508022B7C19671A67D4F8B430B3F5807F15D08DBBB4
S31508022B8CD4F8B43003F44072B2F5407F1ED0774ABB
S31508022B9C136923F47C53136174490B6FD4F8B4206C
S31508022BACC2F30B0213430B678CE7FEF71BF90746B6
S31508022BBC6E4B1B6F13F0020FE1D1FEF713F9C01B14
S31508022BCC41F288339842F3D90325D8E76748026954
S31508022BDC22F47C52664901EA131313430361DBE7B9
S31508022BEC2E466FE72E466DE7012104F10800FFF722
S31508022BFC3FFC0546E5B95D4A536D23F03803E16F90
S31508022C0C0B43536508E0012104F12800FFF7B6FCD3
S31508022C1C0546EFE701263546236813F0020F17D04F
S31508022C2CA36F052B28D8DFE803F00B05200B0B0B3B
S31508022C3C2E46F1E7012104F10800FFF719FC0546B7
S31508022C4CEDB94A4A536D23F00703A16F0B4353653B
S31508022C5C236813F0040F23D0D4F89430052B45D8E7
S31508022C6CDFE803F0150F3D151515012104F12800AF
S31508022C7CFFF784FC0546E3E701263546E8E72E46C8
S31508022C8CE6E7012104F10800FFF7F2FB054685BBCE
S31508022C9C364A936D23F00703D4F894100B439365C5
S31508022CAC236813F0200F34D0D4F89030B3F1005FB8
S31508022CBC4ED023D843B1B3F1805F1CD1002104F165
S31508022CCC0800FFF7D5FB0546002D48D1274A536D58
S31508022CDC23F0E043D4F890100B43536519E0012115
S31508022CEC04F12800FFF74AFC0546D0E701263546CB
S31508022CFCD6E72E46D4E7012635460AE0B3F1804FCD
S31508022D0CE2D0B3F1A04FDFD0B3F1405FDCD001269D
S31508022D1C3546236813F0400F37D0D4F89C30B3F5F8
S31508022D2C006F53D026D843B1B3F5806F19D1002161
S31508022D3C04F10800FFF79CFB0546002D4DD10B4A02
S31508022D4C936D23F4E053D4F89C100B4393651CE063
S31508022D5C022104F12800FFF711FC0546B4E72E46BA
S31508022D6CD7E70126354610E00048025800440258B7
S31508022D7CCFFFFF00B3F5805FDFD0B3F5A05FDCD0E1
S31508022D8CB3F5406FD9D001263546236813F0800F68
S31508022D9C33D0D4F8A030B3F5804F00F0A38021D8F5
S31508022DAC43B1B3F5005F1AD1002104F10800FFF70D
S31508022DBC5FFB0546002D40F09C80814A936D23F4F7
S31508022DCC6043D4F8A0100B43936516E0022104F174
S31508022DDC2800FFF7D3FB0546AFE72E46D5E70126B3
S31508022DEC35460AE0B3F5004FE4D0B3F5204FE1D0EF
S31508022DFCB3F5C04FDED001263546236813F0080F0B
S31508022E0C0CD0D4F88430B3F5805F74D06C4A536D09
S31508022E1C23F44053D4F884100B435365236813F0F8
S31508022E2C100F0CD0D4F89830B3F5807F6CD0644A66
S31508022E3C936D23F44073D4F898100B439365236867
S31508022E4C13F4002F0BD0D4F8A430B3F5803F74D00A
S31508022E5CB3F5003F67D0002B5FD0012635462368B1
S31508022E6C13F4802F0CD0D4F88830B3F5001F7CD01D
S31508022E7CB3F5401F6FD0B3F5801F67D001263546D0
S31508022E8C236813F4803F08D0236D002B76D0B3F554
S31508022E9C803F00F0818001263546236813F0005FD7
S31508022EAC40F08380236813F4003F00F08E80D4F838
S31508022EBC8030B3F5807F00F0EC8040F28380B3F566
S31508022ECC007F03D0B3F5407F40F0E180002D40F03F
S31508022EDCE6803B4A536D23F44073D4F880100B43B7
S31508022EEC536572E0022104F12800FFF747FB0546F9
S31508022EFC60E72E4681E7022104F12800FFF73EFB24
S31508022F0C002883D0012681E7022104F12800FFF765
S31508022F1C35FB00288BD0012689E7002104F108002D
S31508022F2CFFF7A6FA05467DB9254A936D23F4403375
S31508022F3CD4F8A4100B43936591E7022104F12800F7
S31508022F4CFFF71CFB0546EEE72E4688E71C4AD36AB2
S31508022F5C43F40033D3627DB9194A536D23F44013F3
S31508022F6CD4F888100B4353658AE7012104F128002B
S31508022F7CFFF704FB0546EEE72E4681E7104AD36AAD
S31508022F8C43F40033D36275B90D4AD36C23F48033F8
S31508022F9C216D0B43D36480E7022104F10800FFF785
S31508022FAC67FA0546EFE72E4677E7022104F1280071
S31508022FBCFFF7E4FA00283FF475AF012672E700BF63
S31508022FCC00440258002B81D00126236813F4801F73
S31508022FDC06D04F4A136D23F00043616F0B431365FA
S31508022FEC236813F0805F07D0494A136923F4804398
S31508022FFCD4F8B8100B431361236813F4001F06D0D8
S3150802300C434A136D23F08073E16E0B4313652368F1
S3150802301C13F0804F09D03E4B1A6922F400421A610A
S3150802302C1A69D4F8BC100A431A612368002B06DA0B
S3150802303C374AD36C23F04053616D0B43D364236830
S3150802304C13F4000F07D0324A536D23F44003D4F815
S3150802305C8C100B435365636813F0010F21D1636817
S3150802306C13F0020F26D1636813F0040F2BD1636891
S3150802307C13F0080F30D1636813F0100F35D163685B
S3150802308C13F0200F3AD106B101263046F8BD0126B7
S3150802309C9BE71F4AD36A43F40033D36216E72E46DC
S315080230AC93E7002104F10800FFF7E2F90028D6D0CD
S315080230BC0646D4E7012104F10800FFF7D9F90028DE
S315080230CCD1D00646CFE7022104F10800FFF7D0F962
S315080230DC0028CCD00646CAE7002104F12800FFF7DF
S315080230EC4DFA0028C7D00646C5E7012104F1280087
S315080230FCFFF744FA0028C2D00646C0E7022104F1BB
S3150802310C2800FFF73BFA0028BDD00126BDE700BF11
S3150802311C0044025808B5FFF765F9054B1B6AC3F359
S3150802312C0213044AD35C03F01F03D84008BD00BF40
S3150802313C004402583C40020810B4784B9A6A9C6ABE
S3150802314CC4F3053CD96AC1F30011DB6BC3F3CC0398
S3150802315C01FB03F314F47C3F00F0DB8002F003025C
S3150802316C07EE903AF8EE677A012A66D0022A00F040
S3150802317CB380E2B107EE10CAF8EE476A9FED686AA9
S3150802318C86EE267A654B9B6BC3F3080306EE903ADA
S3150802319CF8EE666A9FED636A67EE867A76EEA77A2A
S315080231ACF7EE006A77EEA67A27EE277A61E05B4B92
S315080231BC1B6813F0200F23D058490A68C2F3C102C0
S315080231CC594BD34007EE103AF8EE476A07EE10CA87
S315080231DCB8EE476A86EE867A8B6BC3F3080306EE5D
S315080231EC903AF8EE666A9FED4F6A67EE867A76EE45
S315080231FCA77AF7EE006A77EEA67A27EE277A38E0F0
S3150802320C07EE10CAF8EE476A9FED486A86EE267AEA
S3150802321C424B9B6BC3F3080306EE903AF8EE666ACA
S3150802322C9FED406A67EE867A76EEA77AF7EE006A23
S3150802323C77EEA67A27EE277A1BE007EE10CAF8EE87
S3150802324C476A9FED376A86EE267A344B9B6BC3F335
S3150802325C080306EE903AF8EE666A9FED326A67EE56
S3150802326C867A76EEA77AF7EE006A77EEA67A27EED4
S3150802327C277A2A4A936BC3F3462307EE903AF8EE5B
S3150802328C677AF7EE006A77EEA67A87EE276ABCEEBD
S3150802329CC66A80ED006A936BC3F3064307EE903A4F
S315080232ACF8EE677A77EEA67A87EE276ABCEEC66AD6
S315080232BC80ED016A936BC3F3066307EE903AF8EE58
S315080232CC677A77EEA67AC7EE276AFCEEE66AC0ED4F
S315080232DC026A5DF8044B704707EE10CAF8EE476AA5
S315080232EC9FED136A86EE267A0C4B9B6BC3F3080387
S315080232FC06EE903AF8EE666A9FED0A6A67EE867AE9
S3150802330C76EEA77AF7EE006A77EEA67A27EE277A92
S3150802331CAFE70023036043608360DAE70044025890
S3150802332C0024744A000000390090D0030024744C1F
S3150802333C0024F44A10B4784B9A6A9C6AC4F3055C66
S3150802334CD96AC1F300215B6CC3F3CC0301FB03F30B
S3150802335C14F07C7F00F0DB8002F0030207EE903A51
S3150802336CF8EE677A012A66D0022A00F0B380E2B137
S3150802337C07EE10CAF8EE476A9FED686A86EE267A59
S3150802338C654B1B6CC3F3080306EE903AF8EE666AB5
S3150802339C9FED636A67EE867A76EEA77AF7EE006A8F
S315080233AC77EEA67A27EE277A61E05B4B1B6813F059
S315080233BC200F23D058490A68C2F3C102594BD3408D
S315080233CC07EE103AF8EE476A07EE10CAB8EE476AE5
S315080233DC86EE867A0B6CC3F3080306EE903AF8EE81
S315080233EC666A9FED4F6A67EE867A76EEA77AF7EEED
S315080233FC006A77EEA67A27EE277A38E007EE10CA25
S3150802340CF8EE476A9FED486A86EE267A424B1B6CA3
S3150802341CC3F3080306EE903AF8EE666A9FED406A25
S3150802342C67EE867A76EEA77AF7EE006A77EEA67AD2
S3150802343C27EE277A1BE007EE10CAF8EE476A9FEDCD
S3150802344C376A86EE267A344B1B6CC3F3080306EEF0
S3150802345C903AF8EE666A9FED326A67EE867A76EEEF
S3150802346CA77AF7EE006A77EEA67A27EE277A2A4A21
S3150802347C136CC3F3462307EE903AF8EE677AF7EE27
S3150802348C006A77EEA67A87EE276ABCEEC66A80EDE4
S3150802349C006A136CC3F3064307EE903AF8EE677AA2
S315080234AC77EEA67A87EE276ABCEEC66A80ED016AC3
S315080234BC136CC3F3066307EE903AF8EE677A77EE67
S315080234CCA67AC7EE276AFCEEE66AC0ED026A5DF8D2
S315080234DC044B704707EE10CAF8EE476A9FED136A5B
S315080234EC86EE267A0C4B1B6CC3F3080306EE903A4F
S315080234FCF8EE666A9FED0A6A67EE867A76EEA77A20
S3150802350CF7EE006A77EEA67A27EE277AAFE700235C
S3150802351C036043608360DAE7004402580024744A65
S3150802352C000000390090D0030024744C0024F44A9D
S3150802353C026852E8003F23F4907342E800310029EE
S3150802354CF6D1026802F1080353E8001F0D4B0B4033
S3150802355C083242E800310029F3D1C36E012B06D09A
S3150802356C2023C0F88C300023C36643677047026871
S3150802357C52E8003F23F0100342E800310029F6D145
S3150802358CEEE700BFFEFFFFEF70B586B00446016892
S3150802359C83680269134342691343C2691343086871
S315080235AC884A02401A430A602268536823F4405335
S315080235BCE1680B435360A1692268834B9A4201D096
S315080235CC236A19439068814B03400B439360226824
S315080235DCD36A23F00F03616A0B43D36222687C4BCE
S315080235EC9A4221D07B4B9A4200F08C807A4B9A42B3
S315080235FC00F0A280794B9A4200F0B580784B9A4239
S3150802360C00F0C880774B9A4200F0F480764B9A42C7
S3150802361C00F01981754B9A4200F02C816A4B9A423A
S3150802362C00F03F81802333E0714B5B6D03F0380366
S3150802363C282B65D8DFE813F02900640064006400BF
S3150802364C64006400640064004D0164006400640054
S3150802365C64006400640064002B0064006400640067
S3150802366C64006400640064005E0064006400640024
S3150802367C6400640064006400600064006400640012
S3150802368C64006400640064006200012300E00823FD
S3150802369C4D498A4200F02F81E069B0F5004F00F0DF
S315080236ACAF81202B00F20782202B00F25182DFE831
S315080236BC13F01E0224024F024F0227024F024F0238
S315080236CC4F022C024F024F024F024F024F024F0279
S315080236DC4F0231024F024F024F024F024F024F0264
S315080236EC4F024F024F024F024F024F024F024F0236
S315080236FC4F023D021023CBE72023C9E74023C7E735
S3150802370C8023C5E73A4B5B6D03F00703052B11D8EB
S3150802371CDFE813F00600E10008000A000C000E00B0
S3150802372C0023B5E70823B3E71023B1E72023AFE755
S3150802373C4023ADE78023ABE72D4B5B6D03F0070304
S3150802374C052B0ED8DFE803F003C90507090B00237E
S3150802375C9EE708239CE710239AE7202398E7402341
S3150802376C96E7802394E7224B5B6D03F00703052B40
S3150802377C0ED8DFE803F003B40507090B002387E725
S3150802378C082385E7102383E7202381E740237FE775
S3150802379C80237DE7164B5B6D03F00703052B0ED8CA
S315080237ACDFE803F0039F0507090B002370E70823DC
S315080237BC6EE710236CE720236AE7402368E7802329
S315080237CC66E700BFF369FFCF000C0058FFF4FF1140
S315080237DC001001400044004000480040004C0040E4
S315080237EC005000400014014000780040007C004064
S315080237FC004402587D4B5B6D03F03803282B20D806
S3150802380CDFE803F0151F1F1F1F1F1F1F711F1F1F26
S3150802381C1F1F1F1F171F1F1F1F1F1F1F191F1F1FAA
S3150802382C1F1F1F1F1B1F1F1F1F1F1F1F1D000123CB
S3150802383C2EE708232CE710232AE7202328E7402320
S3150802384C26E7802324E7694B5B6D03F00703052BF8
S3150802385C0ED8DFE803F0034A0507090B002317E71E
S3150802386C082315E7102313E7202311E740230FE754
S3150802387C80230DE75D4B5B6D03F00703052B0ED812
S3150802388CDFE803F003350507090B002300E70823D5
S3150802389CFEE61023FCE62023FAE64023F8E680230C
S315080238ACF6E603F50E339B6D03F00703052B0ED8CC
S315080238BCDFE803F0031F0507090B0223E8E60823D2
S315080238CCE6E61023E4E62023E2E64023E0E680233C
S315080238DCDEE60423DCE60423DAE60423D8E604232C
S315080238ECD6E60423D4E60423D2E60423D0E604233C
S315080238FCCEE60423CCE6202B27D8022BC0F01A815D
S3150802390C023B1E2B00F21881DFE813F05000160159
S3150802391C56001601160116015B0016011601160150
S3150802392C160116011601160160001601160116017A
S3150802393C16011601160116011601160116011601B3
S3150802394C16011601160116016C00402B2CD14FF4E8
S3150802395C0040626A264B33F81220B0FBF2F3656814
S3150802396C05EB4501994200F2E980B3EB053F00F2FB
S3150802397CE780002633463146FCF7AAFC090241EADF
S3150802398C106100026B08C0182A46334641F1000141
S3150802399CFCF79EFCA0F54072164B9A4200F2D280B6
S315080239AC2368D8603046D4E00120D2E0FFF7B2FB98
S315080239BC0028CED10020CCE003A8FFF7BDFB049863
S315080239CCF6E76846FFF7B6FC0198F1E7074B1B6862
S315080239DC13F0200F08D0054B1B68C3F3C103064826
S315080239ECD840B6E70548B4E70348B2E7004402589C
S315080239FC5C400208FFFC0F000090D00300093D0052
S31508023A0C202B15D8202B00F29F80DFE803F03137E4
S31508023A1C9D9D3A9D9D9D3F9D9D9D9D9D9D9D449DD4
S31508023A2C9D9D9D9D9D9D9D9D9D9D9D9D9D9D500094
S31508023A3C402B1BD1626A4D4B33F81230B0FBF3F0B4
S31508023A4C6268530803EB4003B3FBF2F3A3F11001CC
S31508023A5C4FF6EF72914279D89AB222F00F02C3F35B
S31508023A6C420313432268D360002072E0012070E0FF
S31508023A7CFEF7DAFC0028DDD100206AE0FEF7E6FC48
S31508023A8CF8E703A8FFF758FB0498F3E76846FFF72D
S31508023A9C51FC0198EEE7364B1B6813F0200F08D041
S31508023AAC334B1B68C3F3C1033248D840C2E73248CA
S31508023ABCC0E73048BEE7402B17D14FF40040626A84
S31508023ACC2A4B33F81230B0FBF3F0636800EB530061
S31508023ADCB0FBF3F0A0F110024FF6EF739A4242D8FC
S31508023AEC236880B2D860002033E0012031E0FEF76B
S31508023AFC9BFC0028E3D100202BE0FEF7A7FCF8E795
S31508023B0C03A8FFF719FB0498F3E76846FFF712FCBC
S31508023B1C0198EEE7164B1B6813F0200F08D0144BCE
S31508023B2C1B68C3F3C1031348D840C8E71248C6E753
S31508023B3C1048C4E701200CE001200AE0012008E045
S31508023B4C012006E0012004E0012002E0012000E049
S31508023B5C01200123A4F86A30A4F8683000236367AD
S31508023B6CA36706B070BD0120F3E700BF5C400208EC
S31508023B7C004402580090D00300093D00836A13F0F2
S31508023B8C080F06D00268536823F40043816B0B4373
S31508023B9C5360836A13F0010F06D00268536823F444
S31508023BAC0033C16A0B435360836A13F0020F06D0C3
S31508023BBC0268536823F48033016B0B435360836AA0
S31508023BCC13F0040F06D00268536823F48023416B62
S31508023BDC0B435360836A13F0100F06D0026893687E
S31508023BEC23F48053C16B0B439360836A13F0200F43
S31508023BFC06D00268936823F40053016C0B43936056
S31508023C0C836A13F0400F0AD00268536823F48013B0
S31508023C1C416C0B435360436CB3F5801F0BD0836A1C
S31508023C2C13F0800F06D00268536823F40023C16C84
S31508023C3C0B43536070470268536823F4C003816CC4
S31508023C4C0B435360EBE72DE9F84305460E46174638
S31508023C5C9946DDF820802B68DC6936EA04040CBF29
S31508023C6C01240024BC423AD1B8F1FF3FF3D0FDF748
S31508023C7CB9F8A0EB0900404534D8B8F1000F33D097
S31508023C8C2B681A6812F0040FE5D0B6F1400218BF79
S31508023C9C0122802EDFD0002ADDD0DA6912F0080F55
S31508023CAC11D1DA6912F4006FD5D04FF400621A6298
S31508023CBC2846FFF73DFC2023C5F89030002385F8EB
S31508023CCC843003200CE008241C622846FFF730FCDB
S31508023CDCC5F89040002385F88430012000E00020C6
S31508023CECBDE8F8830320FBE70320F9E72DE9F04347
S31508023CFC83B01E46D0F88C30202B7ED104460D4656
S31508023D0C9046002A18BF002901D1012076E000232B
S31508023D1CC0F890302222C0F88C20C366FDF762F8F0
S31508023D2C0746A4F85C80A4F85E80A368B3F5805FA6
S31508023D3C06D0A3B9226972B9FF22A4F8602014E04E
S31508023D4C226922B940F2FF12A4F860200DE0FF2284
S31508023D5CA4F8602009E07F22A4F8602005E0B3F1FC
S31508023D6C805F0AD00022A4F86020B4F86080B3F50C
S31508023D7C805F0CD04FF0000924E022691AB97F2221
S31508023D8CA4F86020F1E73F22A4F86020EDE7236946
S31508023D9C13B14FF0000915E0A946002512E02023BD
S31508023DACC4F88C30032029E023685A6A5FFA88F330
S31508023DBC134005F8013BB4F85E2092B2013A92B26E
S31508023DCCA4F85E20B4F85E309BB28BB100963B46E3
S31508023DDC002220212046FFF736FF0028DFD1002DCE
S31508023DECE2D123685B6A08EA030329F8023BE2E795
S31508023DFC2023C4F88C30002000E0022003B0BDE872
S31508023E0CF08330B583B004460023C0F89030FCF733
S31508023E1CE9FF05462268126812F0080F10D12368CA
S31508023E2C1B6813F0040F28D12023C4F88830C4F871
S31508023E3C8C300020E066206784F8840003B030BD1D
S31508023E4C6FF07E430093034600224FF4001120467E
S31508023E5CFFF7F9FE0028E2D0226852E8003F23F069
S31508023E6C800342E800310029F6D12023C4F88830B1
S31508023E7C002384F884300320E0E76FF07E43009336
S31508023E8C2B4600224FF480012046FFF7DCFE002861
S31508023E9CCAD0226852E8003F23F4907342E80031F4
S31508023EAC0029F6D1226802F1080353E8003F23F0F1
S31508023EBC0103083242E800310029F3D12023C4F861
S31508023ECC8C30002384F884300320B7E778B310B516
S31508023EDC0446D0F888300BB32423C4F888302268F9
S31508023EEC136823F001031360A36AE3B92046FFF7AC
S31508023EFC4BFB012811D02268536823F49043536074
S31508023F0C2268936823F02A0393602268136843F0A5
S31508023F1C010313602046FFF774FF10BD80F8843046
S31508023F2CFCF712FED8E72046FFF728FEDEE701204B
S31508023F3C704702440346934200D1704703F8011BAB
S31508023F4CF9E7000070B50D4D0D4C641BA410002644
S31508023F5CA64209D10B4D0C4C00F026F8641BA41092
S31508023F6C0026A64205D170BD55F8043B9847013682
S31508023F7CEEE755F8043B98470136F2E77C4002080F
S31508023F8C7C4002087C400208804002080A4491429E
S31508023F9C00F1FF3300D1704710B511F8014B03F845
S31508023FAC014F9142F9D110BDF8B500BFF8BC08BC57
S31508023FBC9E467047F8B500BFF8BC08BC9E467047CB
S31508023FCC00000000000000000000000000000000D5
S31508023FDC00000000010000000200000003000000BF
S31508023FEC04000000000000000500000000000000AC
S31508023FFC000000000000000006000000000000009F
S3150802400C000000000000000007000000050206027E
S3150802401C060307030803090309040A040B040C0420
S3150802402C0C050D050E050F050F06100610071008D0
S3150802403C0000000001020304010203040607080932
S3150802404C0001020304050607080C10141820304058
S3150802405C010002000400060008000A000C00100009
S30D0802406C20004000800000015B
S30D0802407498C2FF7F010000005B
S3090802407CC102020863
S309080240809D02020883
S315080240840090D0030090D003010000001000000045
S70508020CD90B
